:020000040800F2
:200000000000022029070008A50C0008B30C0008BB0C0008C30C0008CB0C00080000000081
:20002000000000000000000000000000F1490108D30C000800000000014C0108E10C00084B
:200040007D0700087D0700087D0700087D0700087D0700087D0700087D0700087D07000840
:200060007D0700087D0700087D0700087D0700087D0700087D0700087D0700087D07000820
:200080007D0700087D0700087D0700087D0700087D0700087D0700087D0700087D07000800
:2000A0007D0700087D0700087D0700087D0700087D0700087D0700087D0700087D070008E0
:2000C0007D0700087D0700087D0700087D0700087D0700087D0700087D0700087D070008C0
:2000E000ED0C00087D070008000000007D0700087D0700087D0700087D0700087D070008B7
:200100007D0700087D0700087D0700087D0700087D0700087D070008910C00087D07000866
:200120007D0700087D0700087D0700087D0700087D0700087D0700087D0700087D0700085F
:20014000000000000000000000000000000000007D0700087D0700087D0700087D0700086F
:200160007D0700087D0700087D0700087D0700087D0700087D0700087D0700087D0700081F
:200180007D0700087D0700087D0700087D0700087D0700087D0700087D0700087D070008FF
:2001A000250D00087D070008110D000800000000FD0C00087D0700087D0700087D0700089E
:2001C0007D0700087D070008000000000000000000000000000000007D070008000000007B
:2001E0000000000000000000000000000000000000000000000000007D0700087D070008E7
:200200007D0700087D070008000000007D0700087D0700087D0700087D0700087D0700080A
:200220007D070008000000007D070008000000007D0700087D070008000000007D07000802
:200240007D0700087D0700087D0700087D0700087D0700087D0700087D0700087D0700083E
:200260007D0700087D0700087D0700087D0700087D0700087D0700087D07000800000000AA
:200280007D0700087D0700087D0700087D070008000000007D0700087D0700087D0700088A
:2002A0007D0700087D0700087D0700087D0700087D0700087D0700087D0700087D070008DE
:2002C0007D0700087D0700087D0700080000000010B5054C237833B9044B13B10448AFF3DC
:2002E00000800123237010BD300F0024000000002438020808B5034B1BB103490348AFF321
:20030000008008BD00000000340F00242438020801F0FF01102A2BDB10F0070F08D010F8A4
:20032000013B013A8B422DD010F0070F42B3F6D1F0B441EA012141EA014122F007047FF0C0
:2003400000070023F0E80256083C85EA010586EA010685FA47F5A3FA87F586FA47F6A5FAE3
:2003600087F68EB9EED1F0BC01F0FF0102F0070232B110F8013B013A83EA010313B1F8D102
:200380000020704701387047002D06BF35460338073815F0010F07D1013015F4807F02BFC8
:2003A000013015F4C03F0130F0BC0138704700BF81F0004102E000BF83F0004330B54FEA51
:2003C00041044FEA430594EA050F08BF90EA020F1FBF54EA000C55EA020C7FEA645C7FEA6C
:2003E000655C00F0E2804FEA5454D4EB5555B8BF6D420CDD2C4480EA020281EA030382EAD6
:20040000000083EA010180EA020281EA0303362D88BF30BD11F0004F4FEA01314FF4801C5D
:200420004CEA113102D0404261EB410113F0004F4FEA03334CEA133302D0524263EB43032B
:2004400094EA050F00F0A780A4F10104D5F1200E0DDB02FA0EFC22FA05F2801841F1000199
:2004600003FA0EF2801843FA05F359410EE0A5F120050EF1200E012A03FA0EFC28BF4CF0ED
:20048000020C43FA05F3C01851EBE37101F0004507D54FF0000EDCF1000C7EEB00006EEBB7
:2004A0000101B1F5801F1BD3B1F5001F0CD349085FEA30004FEA3C0C04F101044FEA44524F
:2004C00012F5800F80F09A80BCF1004F08BF5FEA500C50F1000041EB045141EA050130BDB4
:2004E0005FEA4C0C404141EB0101013C28BFB1F5801FE9D291F0000F04BF01460020B1FA23
:2005000081F308BF2033A3F10B03B3F120020CDA0C3208DD02F1140CC2F10C0201FA0CF011
:2005200021FA02F10CE002F11402D8BFC2F1200C01FA02F120FA0CFCDCBF41EA0C0190408F
:20054000E41AA2BF01EB0451294330BD6FEA04041F3C1CDA0C340EDC04F11404C4F12002E2
:2005600020FA04F001FA02F340EA030021FA04F345EA030130BDC4F10C04C4F1200220FA68
:2005800002F001FA04F340EA0300294630BD21FA04F0294630BD94F0000F83F4801306BF21
:2005A00081F480110134013D4EE77FEA645C18BF7FEA655C29D094EA050F08BF90EA020F86
:2005C00005D054EA000C04BF1946104630BD91EA030F1EBF0021002030BD5FEA545C05D130
:2005E0004000494128BF41F0004130BD14F580043CBF01F5801130BD01F0004545F0FE4145
:2006000041F470014FF0000030BD7FEA645C1ABF194610467FEA655C1CBF0B46024650EA79
:20062000013406BF52EA033591EA030F41F4002130BD00BF90F0000F04BF0021704730B5AE
:200640004FF4806404F132044FF000054FF0000150E700BF90F0000F04BF0021704730B5BF
:200660004FF4806404F1320410F0004548BF40424FF000013EE700BF42004FEAE2014FEA9F
:2006800031014FEA02701FBF12F07F4393F07F4F81F06051704732F07F4208BF704793F0CD
:2006A0007F4F04BF41F40021704730B54FF4607401F0004521F000411CE700BF50EA010219
:2006C00008BF704730B54FF000050AE050EA010208BF704730B511F0004502D5404261EBFE
:2006E00041014FF4806404F132045FEA915C3FF4D8AE4FF003025FEADC0C18BF03325FEAAD
:20070000DC0C18BF033202EBDC02C2F1200300FA03FC20FA02F001FA03FE40EA0E0021FAF0
:2007200002F11444BDE600BFDFF838D00CF060FC002103E00C4B5B58435004310B480C4B55
:2007400042189A42F6D30B4A02E0002342F8043B094B9A42F9D30CF0F3FB22F0F5FA00F0F0
:20076000EDF9704700000220D47502080000002420010024300F002458AF0024FEE780B556
:2007800084B000AF0CF012FE01233B7000237B601F233B720023FB720023FB730023BB733C
:2007A00001237B7300237B700023BB7287237B7201233B733B4618460CF030FE01233B7088
:2007C0004FF010537B6012233B720323FB720023FB730123BB7300237B7301237B70002301
:2007E000BB7200237B7201233B733B4618460CF015FE01233B704FF0E0437B601C233B7204
:200800000023FB720023FB730023BB7300237B7302237B700023BB7200237B7201233B7313
:200820003B4618460CF0FAFD01233B704FF0E0437B6016233B720323FB720123FB730123AB
:20084000BB7300237B7303237B700023BB7200237B7201233B733B4618460CF0DFFD01233B
:200860003B704FF010437B601C233B720023FB720023FB730023BB7300237B7304237B70DF
:200880000023BB7200237B7201233B733B4618460CF0C4FD01233B704FF010437B60192312
:2008A0003B720323FB720023FB730123BB7300237B7305237B700023BB7200237B7200236E
:2008C0003B733B4618460CF0A9FD04200CF086FD00BF1037BD4680BD80B483B000AF786012
:2008E000002318460C37BD465DF8047B7047000080B588B000AF786039607B68274A1A604B
:2009000078680FF065FF7B6804225A607B6800229A607B684FF08062DA603B681A687B688C
:200920001A617B6804225A617B6800229A617B680022DA617B6800221A627B6804225A62F2
:200940003B689A687B689A627B684FF08052DA627B68FA22DA637B6817221A6378680FF02F
:2009600071FE0346FB77FB7F002B11D10323FB6006233B6100237B610123BB6107F10C033A
:2009800041F288321946786810F023F90346FB77FB7F18462037BD4680BD00BF00A0005234
:2009A00080B582B000AF786039607B681E4A1A607B6804225A607B6800229A603B681A6804
:2009C0007B681A617B6802225A617B6800229A617B680022DA617B6800221A627B6804222D
:2009E0005A623B689A687B689A627B6800221A633B68DB68012B08D17B684FF08072DA60FC
:200A00007B684FF08052DA6205E07B680022DA607B680022DA6278680FF014FE03461846A9
:200A20000837BD4680BD00BF0050005280B586B000AF0346FB7100237B61FB79002B1ED07B
:200A400001233B7301237B7307F10C03194600200AF098FC0346002B0FD100200AF07EFDB5
:200A60000346002B09D1254B00221A6000F0F4F8234813F01EF901233CE000233AE001231A
:200A80003B7301237B7300200AF01AFD07F10C03194600200AF076FC78617B69002B01D0BA
:200AA000002327E000200AF059FD78617B69002B01D000231EE001233B7401237B740323B6
:200AC000BB7407F11003194600200AF047FE00200AF012FF78617B69002B01D0002309E02E
:200AE0000121002009F0CAFE0346002B01D0002300E0012318461837BD4680BD10E000E0CA
:200B00004C0F002480B400AF034B1B681846BD465DF8047B704700BFD0AC002480B582B0F0
:200B200000AF7860FFF7EEFF03461A680C3212681846904700BF0837BD4680BD80B582B0EE
:200B400002AF17F0EDF817F031FA4FF4616109481BF0DAF8002301930323009300234FF4BD
:200B600080520549054815F0C5F815F007FA00BFFDE700BF20010024403802081D0B0008E7
:200B800080B590B000AF78600023BB6300237B630022796836200CF0CEFB36200CF0E5FBC7
:200BA000284BD3F8E830274A43F01003C2F8E830244BD3F8E83003F01003FB60FB6807F148
:200BC000100207F114031146184611F0D5FCBB6ABB63BB6B002B03D111F0A2FCF86304E027
:200BE00011F09EFC03465B00FB63FB6B164AA2FB03239B0C013B7B63144B154A1A60134B78
:200C000040F2E732DA60114A7B6B53600F4B00221A610E4B00229A600C4812F0F3FF03465E
:200C2000002B0AD1094813F033F90346002B04D1084B00221A60002300E0012318464037FA
:200C4000BD4680BD0044025883DE1B434C0F002400100040981C002480B500AF064B1B6898
:200C6000DA68054B1B6822F00102DA6036200CF08AFB00BF80BD00BF4C0F002480B582B098
:200C800000AF78600CF010FA00BF0837BD4680BD80B500AF024813F081F900BF80BD00BF23
:200CA0004C0F002480B400AF00BFBD465DF8047B704780B400AF00BFFDE780B400AF00BF5D
:200CC000FDE780B400AF00BFFDE780B400AF00BFFDE780B400AF00BFBD465DF8047B7047F4
:200CE00080B500AF13F00EFC00BF80BD80B500AF002009F035FE00BF80BD000080B500AFF7
:200D000002480FF097FD00BF80BD00BF7C1A002480B500AF02480CF0D2FD00BF80BD00BFCD
:200D200078AB002480B500AF02480FF01AF800BF80BD00BFD0AA002480B400AF012318466F
:200D4000BD465DF8047B704780B582B000AF7860396021F0F3FF034616221A604FF0FF330F
:200D600018460837BD4680BD80B582B000AF78604FF0FF317868FFF7E7FF00BFFDE780B5A5
:200D800086B000AFF860B9607A6000237B610AE0AFF300800146BB685A1CBA60CAB21A7018
:200DA0007B6901337B617A697B689A42F0DB7B6818461837BD4680BD80B586B000AFF86090
:200DC000B9607A6000237B6109E0BB685A1CBA601B781846AFF300807B6901337B617A699B
:200DE0007B689A42F1DB7B6818461837BD4680BD80B483B000AF78604FF0FF3318460C3798
:200E0000BD465DF8047B704780B483B000AF786039603B684FF400525A60002318460C3707
:200E2000BD465DF8047B704780B483B000AF7860012318460C37BD465DF8047B704780B4AF
:200E400085B000AFF860B9607A60002318461437BD465DF8047B704780B586B000AF786017
:200E6000144A154BD31A7B617B693B61134B1B68002B02D1114B124A1A60104B1A687B689A
:200E800013443A699A4207D221F058FF03460C221A604FF0FF3309E0084B1B68FB60074B6D
:200EA0001A687B681344054A1360FB6818461837BD4680BD0000022000400000980F002437
:200EC0000000002080B483B000AF7860044A7B681A607B6818460C37BD465DF8047B704747
:200EE0001041020880B582B000AF78607868FFF7E9FF0421786821F06BF87B6818460837F2
:200F0000BD4680BD80B582B000AF78600B467B807B88002B02D0012B05D009E003F006F87C
:200F200003461B6805E003F001F803465B6800E0002318460837BD4680BD000080B582B0C1
:200F400000AF7860054A7B681A607B681846FFF7B9FF7B6818460837BD4680BDFC40020869
:200F600080B582B000AF78607868FFF7E7FF0421786821F02DF87B6818460837BD4680BDCC
:200F800080B483B000AF7860044A7B681A607B6818460C37BD465DF8047B7047EC6502084B
:200FA00080B582B000AF78607868FFF7E9FF1021786821F00DF87B6818460837BD4680BD9E
:200FC00090B587B000AF78600B467B8000233B610023FB737B681B6808331C6807F10F0343
:200FE00007F1100279887868A04778617B6918461C37BD4690BD80B483B000AF78607B6890
:201000005B8918460C37BD465DF8047B704780B483B000AF78607B689B8918460C37BD4624
:201020005DF8047B704780B483B000AF78607B689B8818460C37BD465DF8047B704780B4CE
:2010400083B000AF78607B689B887A68927913449BB218460C37BD465DF8047B704780B4DC
:2010600083B000AF78607B68DB79C3F30603DBB218460C37BD465DF8047B704780B483B09D
:2010800000AF78607B68DB79C3F3C013DBB218460C37BD465DF8047B704780B483B000AF37
:2010A00078607B681B6A18460C37BD465DF8047B7047000080B582B000AF7860054A7B68A1
:2010C0001A607B681846FFF75BFF7B6818460837BD4680BDA866020880B582B000AF78603F
:2010E0007868FFF7E7FF1821786820F071FF7B6818460837BD4680BD80B582B000AF7860ED
:20110000054A7B681A607B681846FFF7D3FF7B6818460837BD4680BD2441020880B582B084
:2011200000AF78607868FFF7E7FF2421786820F04FFF7B6818460837BD4680BD80B582B0C2
:2011400000AF7860786800F015F8084B1A68084B19687B681B885B000B441B789B001344CD
:201160001B6818460837BD4680BD00BF44AD00243CAD002480B582B000AF78600C4B1B6866
:20118000002B05D10B4B0C4ADE210C4821F03AFB7B681A880A4B1B889A4205D3094B064A34
:2011A000DF21064821F02EFB00BF0837BD4680BD3CAD0024483802088C380208BC38020806
:2011C00040AD00241839020880B483B000AF78607B685B7B1BB21B021BB203F4E0631AB23F
:2011E0007B68DB7A1BB213431BB29BB218460C37BD465DF8047B704780B58CB008AFF860CB
:20120000B96011461A460B46FB801346BB80F868B988FA883B8F0693BB8E059397F8283050
:20122000049397F82430039397F8203002933B7F01933B7E00930B46B9681CF0ADFB084A18
:20124000FB681A60FB68FA6A9A61FB683A6BDA61FB68FA6B1A62FB6818461037BD4680BD20
:201260002441020880B485B000AF786039607B689B69FB603B689B88DB0A9BB29B00FA683F
:2012800013441A683B681B68134418461437BD465DF8047B704780B586B000AFF8600B46FE
:2012A0007A607B817B68002B03D07B681B7B002B01D1002323E07868FFF786FF0346BB82FA
:2012C000BB8AFB8213E0FB68DA69FB8A9B0013441B887A899A4207D1FB68DA69FB8A9B001C
:2012E000134493F902300AE0FB8A0133FB82FA8ABB8A7968097B0B449A42E4DB0023184620
:201300001837BD4680BD000080B500AF0148FFF7F3FE80BD9C0F002480B58AB00AAF1E4B8D
:201320001B68BFF35B8F03F00103002B0CBF01230023DBB2002B2AD0174820F04BFE0346A7
:20134000002B14BF01230023DBB2002B1FD000230993002308933F230793104B0693104BD9
:2013600005930023049300230393002302930423019300230093182310220A490A48FFF731
:201380003BFF0A4821F05CFA034820F02FFE064B1846BD4680BD00BFC00F0024605E2D90B6
:2013A00070410208BC5E2D909C0F00240913000880B500AF0148FFF79FFE80BDC40F0024B4
:2013C00080B58AB00AAF1E4B1B68BFF35B8F03F00103002B0CBF01230023DBB2002B2AD077
:2013E000174820F0F7FD0346002B14BF01230023DBB2002B1FD000230993002308933F2376
:201400000793104B0693104B05930023049300230393002302930423019303230093122377
:2014200031220A490A48FFF7E7FE0A4821F008FA034820F0DBFD064B1846BD4680BD00BF93
:20144000E80F0024645E2D90744102089C5F2D90C40F0024B113000880B483B000AF7860CA
:2014600039603B6818460C37BD465DF8047B704780B483B000AF7860396000BF0C37BD4675
:201480005DF8047B704780B483B000AF7860396000BF0C37BD465DF8047B704780B483B043
:2014A00000AF7860396000BF0C37BD465DF8047B704780B483B000AF78600B46FB7000BF13
:2014C0000C37BD465DF8047B704780B483B000AF786000BF0C37BD465DF8047B704780B489
:2014E00083B000AF786000BF0C37BD465DF8047B7047000080B483B000AF7860044A7B6883
:201500001A607B6818460C37BD465DF8047B70476842020880B582B000AF78607868FFF7C7
:20152000E9FF0421786820F053FD7B6818460837BD4680BD80B483B000AF7860074A7B687C
:201540001A607B6800225A607B6800221A727B6818460C37BD465DF8047B7047484202081B
:2015600080B483B000AF7860044A7B681A607B6818460C37BD465DF8047B7047484202082C
:2015800080B582B000AF78607868FFF7E9FF0C21786820F01DFD7B6818460837BD4680BDA8
:2015A00080B483B000AF786000BF0C37BD465DF8047B704780B483B000AF786000BF0C37BD
:2015C000BD465DF8047B704780B483B000AF786000BF0C37BD465DF8047B704780B483B098
:2015E00000AF786039607B683A685A6000BF0C37BD465DF8047B704780B483B000AF78600E
:201600000B46FB7000BF0C37BD465DF8047B704780B483B000AF7860044A7B681A607B6802
:2016200018460C37BD465DF8047B70473042020880B582B000AF78607868FFF7E9FF04212E
:20164000786820F0C5FC7B6818460837BD4680BD80B582B000AF7860054A7B681A607B689C
:201660001846FFF747FF7B6818460837BD4680BDC064020880B582B000AF78607868FFF71E
:20168000E7FF4FF49871786820F0A2FC7B6818460837BD4680BD000080B582B000AF7860DC
:2016A0007B6818461BF07CFC094A7B681A607B680022C3F830217B680022C3F834217B68AD
:2016C000044A13607B6818460837BD4680BD00BFF441020838AD002480B582B000AF786094
:2016E000054A7B681A607B681846FFF7B1FF7B6818460837BD4680BDF441020880B582B0F1
:2017000000AF78607868FFF7E7FF4FF49C71786820F05EFC7B6818460837BD4680BD80B5F7
:2017200082B000AF7860786800F004F800BF0837BD4680BD80B582B000AF78607B68D3F84A
:201740003431002B0FD07B68D3F834217B68D3F834311B680C331B68104698470346002B16
:2017600001D0012300E00023002B0ED07B68D3F834217B68D3F834311B6808331B681046BB
:2017800098477B680022C3F8342100BF0837BD4680BD80B584B000AFF860B9607A601BF0A9
:2017A00095FB034618461BF0DEFB7B681B68002B08D07B681A687B681B681B680C331B6895
:2017C000104698477B681B68002B07D07B681A687B681B681B681B6810469847FB681B6880
:2017E000002B08D0FB681A68FB681B681B6814331B6810469847BB681B68002B08D0BB68CD
:201800001A68BB681B681B6804331B6810469847FB681B68002B07D0FB681A68FB681B687B
:201820001B681B6810469847BB681B68002B08D0BB681A68BB681B681B6808331B681046E2
:20184000984700BF1037BD4680BD80B584B000AFF860B9607A60FB681B680C331B68F868F8
:201860009847BB681B681B68B86898477968F8681CF06AFC7B681B6810331B6878689847C3
:201880001BF024FB03461A68283212681846904700BF1037BD4680BD80B483B000AF786016
:2018A00039607B683A681A6000BF0C37BD465DF8047B704780B582B000AF7860054A7B68E0
:2018C0001A607B681846FFF7A3FE7B6818460837BD4680BDDC41020880B582B000AF7860E1
:2018E0007868FFF7E7FF1021786820F071FB7B6818460837BD4680BD80B582B000AF7860F1
:20190000084A7B681A607B6803F59C731846FFF7D1FF7B681846FFF7DFFE7B681846083776
:20192000BD4680BDA041020880B582B000AF78607868FFF7E1FF4FF4A871786820F048FB49
:201940007B6818460837BD4680BD000080B582B000AF78607B681846FFF7ECFD034A7B6889
:201960001A607B6818460837BD4680BD8041020880B582B000AF7860054A7B681A607B68E5
:201980001846FFF7EDFD7B6818460837BD4680BD8041020880B582B000AF78607868FFF7BA
:2019A000E7FF0C21786820F013FB7B6818460837BD4680BD80B483B000AF78607B68012262
:2019C0001A7200BF0C37BD465DF8047B704780B483B000AF786039607B683A685A6000BF66
:2019E0000C37BD465DF8047B7047000080B584B000AFF860B9607A60FB681846FFF74CFEB2
:201A0000104AFB681A60FB6803F59C73184600F099F8FB687A68C3F84821FB68BA68C3F89D
:201A20004C21FFF76FF803461A6808321268002118469047002002F001FAFB6818461037F2
:201A4000BD4680BDA041020880B483B000AF786039607B6818460C37BD465DF8047B7047C2
:201A600080B582B000AF786039607B683A6811461846FFF7E9FF3B685A687B685A607B68E2
:201A80003A680833083292E8030083E803007B6818460837BD4680BD90B589B000AF78607F
:201AA0007B6803F59C74104BBB610023FB6107F1080007F118030CCB796800F05FF807F13B
:201AC000080319462046FFF7CBFF07F108031846FFF7F0FE7B6803F59C727B68C3F8342155
:201AE00000BF2437BD4690BDED1A000880B584B002AF78607B6803F598717B68D3F8483170
:201B00001A467B68D3F84C310093044B044800F055F800BF0837BD4680BD00BF34AD0024CD
:201B200030AD002480B483B000AF7860044A7B681A607B6818460C37BD465DF8047B7047F9
:201B40003042020880B582B000AF78607B681846FFF7E8FF084A7B681A607B6800225A608F
:201B60007B6800229A607B680022DA607B6818460837BD4680BD00BFDC41020880B584B018
:201B800000AFF860B960394681E80C00FB681846FFF7C8FF084AFB681A60FB68BA685A6045
:201BA000FB6808333A4692E8030083E80300FB6818461037BD4680BDDC41020890B589B02F
:201BC00000AFF860B9607A603B607B689A687B689B681B6820331B6810469847034640F698
:201BE0000B32934205D8454B454AC221454820F009FE7B685A687B685B681B6820331B68AC
:201C00001046984703460F2B05D83F4B3C4AC3213C4820F0F7FD7B68DA687B68DB681B68E5
:201C200020331B681046984703460B2B05D8374B334AC421334820F0E5FD3A68B968F868C9
:201C4000FFF7A7FD7B68DB680021184600F060F8034619460C20FFF7FFFB04462046FFF793
:201C600075FEFC617B689B680021184600F063F80346194640F60C30FFF7EEFB044620463B
:201C800002F032FFBC617B685B680021184600F065F8034619461020FFF7DEFB0446B9697F
:201CA000204602F051FC7C613B68FA691A60BB687A691A60FB68BA691A607B69002B02D0C1
:201CC0007B69043300E000231946386BFFF7E4FD7B690433396B1846FFF779FEBB6979697D
:201CE000184600F04EF8FA697969B869FFF7ADFD7B6918462437BD4690BD00BF6C390208EF
:201D0000FC390208C83A0208243B0208C83B020880B582B000AF78600B467B807B681B6862
:201D200024331B687A88114678689847034618460837BD4680BD80B582B000AF78600B464C
:201D40007B807B681B6824331B687A88114678689847034618460837BD4680BD80B582B0A3
:201D600000AF78600B467B807B681B6824331B687A88114678689847034618460837BD464F
:201D800080BD80B483B000AF786039607B683A68DA6300BF0C37BD465DF8047B704780B5F8
:201DA00082B000AF78607B685B687A68D268521099187B68DB6803F00103002B02D17B6897
:201DC0009B680AE07B685B687A68D268521013441B687A68926813441B680846984700BF76
:201DE0000837BD4680BD80B483B000AF78607B685B68002B10D07B689B68002B07D17B68F9
:201E0000DB6803F00103002B01D1012300E00023012B01D0012300E0002318460C37BD469C
:201E20005DF8047B704780B483B000AF78607B6800221A807B6800225A807B6800229A808C
:201E40007B680022DA807B6818460C37BD465DF8047B704780B485B000AFF86008461146FC
:201E60001A4603467B810B463B811346FB80FB687A891A80FB683A895A80FB68FA889A80DD
:201E8000FB683A8BDA80FB6818461437BD465DF8047B704780B483B000AF78600B467B80EC
:201EA0007B687A881A807B6818460C37BD465DF8047B704780B584B002AF7860134A7B685F
:201EC0001A607B68181D00230093002300220021FFF7C0FF7B680C331846FFF7A4FF7B68A3
:201EE00000225A617B6800229A617B680022DA617B68002283F824207B68012283F825203B
:201F00007B6818460837BD4680BD00BF3C66020880B483B000AF7860044A7B681A607B681A
:201F200018460C37BD465DF8047B70473C66020880B582B000AF78607868FFF7E9FF2821D1
:201F4000786820F045F87B6818460837BD4680BD80B584B000AFF860084611461A460346D6
:201F60007B810B463B811346FB80FB681B6834331B68B7F90820B7F90A10F8689847FB6870
:201F80001B6838331B68B7F906201146F8689847FB681B683C331B68B7F918201146F868ED
:201FA000984700BF1037BD4680BD80B483B000AF78600B467B807B687A889A8000BF0C37C1
:201FC000BD465DF8047B704780B483B000AF78600B467B807B687A88DA8000BF0C37BD46F5
:201FE0005DF8047B704780B582B000AF78600B467B8013463B807B681B682C331B68B7F910
:020000040800F2
:2020000002201146786898477B681B6830331B68B7F9002011467868984700BF0837BD4655
:2020200080BD80B483B000AF78600B467B807B687A881A8100BF0C37BD465DF8047B704719
:2020400080B483B000AF78600B467B807B687A885A8100BF0C37BD465DF8047B704780B4C2
:2020600083B000AF786000BF0C37BD465DF8047B704780B483B000AF7860396000BF0C378D
:20208000BD465DF8047B704780B483B000AF7860396000BF0C37BD465DF8047B704780B467
:2020A00083B000AF7860396000BF0C37BD465DF8047B704780B483B000AF786000BF0C374D
:2020C000BD465DF8047B704780B582B000AF78600B467B8013463B807B681B6854331B68B4
:2020E00079887A68B2F9042092B28A1A92B210B239887A68B2F9062092B28A1A92B212B2DC
:2021000001467868984700BF0837BD4680BD000080B582B000AF78607B681846FFF7CAFE8E
:20212000054A7B681A607B6800229A627B6818460837BD4680BD00BF105C020880B582B096
:2021400000AF7860054A7B681A607B681846FFF7DFFE7B6818460837BD4680BD105C020802
:2021600080B582B000AF78607868FFF7E7FF2C2178681FF02DFF7B6818460837BD4680BD8D
:2021800080B483B000AF7860122318460C37BD465DF8047B704780B483B000AF78600B46AE
:2021A000FB707B68FA7883F8262000BF0C37BD465DF8047B704780B483B000AF78600B46CF
:2021C000FB707B68FA7883F82A2000BF0C37BD465DF8047B704780B584B000AFF86087ED06
:2021E000020AC7ED010A87ED001AFB68BA685A64FB687A689A64FB683A68DA64F86818F055
:2022000067FE00BF1037BD4680BD80B584B000AFF86087ED020AC7ED010AFB68BA681A6560
:20222000FB687A685A65F86818F052FE00BF1037BD4680BD80B582B000AF786087ED000A30
:20224000D7ED007AB7EE007AF4EEC77AF1EE10FA01DD3B6801E04FF07E537A6893657868E9
:2022600018F036FE00BF0837BD4680BD80B584B000AFF86087ED020AC7ED010AFB68BA68B0
:20228000DA62FB687A681A63F86818F021FE00BF1037BD4680BD000080B582B000AF786085
:2022A0000A4A7B681A607B68BC33184618F0BFFD7B682C33184618F0BAFD7B681846FFF7E3
:2022C0003DFF7B6818460837BD4680BD9042020880B582B000AF78607868FFF7DDFF4FF443
:2022E000A67178681FF074FE7B6818460837BD4680BD000090B585B000AF78607B68184664
:20230000FFF706FF754A7B681A607B682C33184618F09CFD7B68BC33184618F097FD7B68B6
:20232000C8211846FFF77DFE7B68C8211846FFF787FE7B682C33002200211846FFF753FE16
:202340007B6803F12C0407F1080303211846FFF7A1FD07F108031946204618F005FF7B68A6
:202360002C33C8211846FFF75CFE7B682C33C8211846FFF765FE7B682C33DFED590A9FED88
:20238000580A1846FFF772FF7B682C33B7EE000A184618F004FF7B682C339FED520A184634
:2023A000FFF748FF7B682C339FED4E1ADFED4E0A9FED4D0A1846FFF70EFF7B682C33DFED34
:2023C0004A0A9FED490A1846FFF71FFF7B682C339FED431ADFED420A9FED410A184618F0D8
:2023E0009EFF7B682C3301211846FFF7D4FE7B68BC33002200211846FFF7F5FD7B6803F184
:20240000BC0407F10C030B211846FFF743FD07F10C031946204618F0A7FE7B68BC33C82101
:202420001846FFF7FEFD7B68BC33C8211846FFF707FE7B68BC33DFED2D0A9FED2C0A184644
:20244000FFF714FF7B68BC33B0EE000A184618F0A6FE7B68BC339FED230A1846FFF7EAFE28
:202460007B68BC339FED1F1ADFED1F0A9FED1E0A1846FFF7B0FE7B68BC33DFED1B0A9FEDCB
:202480001A0A1846FFF7C1FE7B68BC339FED141ADFED130A9FED120A184618F040FF7B6860
:2024A000BC3301211846FFF776FE7B68BC3300211846FFF780FE7A687B682C3319461046A5
:2024C00017F00EFC7A687B68BC331946104617F007FC7B6818461437BD4690BD90420208C0
:2024E0000000000000007A440000C8420000484280B483B000AF786000BF0C37BD465DF842
:20250000047B704780B483B000AF78607B6893F8253018460C37BD465DF8047B704780B471
:2025200083B000AF78607B6893F8243018460C37BD465DF8047B704780B483B000AF786002
:202540007B684FF6FF729A817B684FF6FF721A847B684FF6FF725A8400BF0C37BD465DF8BF
:20256000047B704780B584B000AFF860B9607A60F868FFF7E1FF7B681A68FB68DA617B68A6
:20258000FA681A6000BF1037BD4680BD80B582B000AF78607B681846FFF78CFC034A7B683C
:2025A0001A607B6818460837BD4680BDB843020880B582B000AF7860054A7B681A607B685F
:2025C0001846FFF7A5FC7B6818460837BD4680BDB843020880B582B000AF78607868FFF77D
:2025E000E7FF282178681FF0F3FC7B6818460837BD4680BD80B584B000AFF8607B600B4672
:202600007B8113463B81FB681846FFF77BFF0346002B08D0FB681846FFF781FF0346002B81
:2026200001D0012300E00023002B02D0FA687B681A6000BF1037BD4680BD80B483B000AF8A
:202640007860012318460C37BD465DF8047B704780B582B000AF786039607B681846FFF791
:2026600095FF0B4A7B681A607B6826334FF6FF711846FFF70FFC7B68FF2283F8282039685C
:20268000786819F0C9FA7B6818460837BD4680BD5064020880B582B000AF7860054A7B68F0
:2026A0001A607B681846FFF783FF7B6818460837BD4680BD5064020880B582B000AF78607B
:2026C0007868FFF7E7FF2C2178681FF081FC7B6818460837BD4680BD80B582B000AF7860D7
:2026E000084A7B681A607B682C331846FFF7D2FF7B681846FFF722FD7B6818460837BD46EB
:2027000080BD00BF2443020880B582B000AF78607868FFF7E1FF582178681FF059FC7B6808
:2027200018460837BD4680BD90B585B000AF78607B681846FFF7ECFC1F4A7B681A607B68F3
:2027400003F12C0407F108034FF6FF711846FFF7A1FB07F1080319462046FFF779FF7B6894
:20276000A0211846FFF75DFC7B6828211846FFF767FC7B682C33002200211846FFF733FC00
:202780007B6803F12C0407F10C0307211846FFF781FB07F10C031946204619F03DFA7A6845
:2027A0007B682C331946104617F09AFA7B6818461437BD4690BD00BF2443020880B483B014
:2027C00000AF786000BF0C37BD465DF8047B704780B483B000AF786039607B683A681A605C
:2027E0007B6818460C37BD465DF8047B704780B483B000AF78600B46FB707B68FA7883F84D
:20280000252000BF0C37BD465DF8047B704780B483B000AF78600B46FB707B68FA7883F869
:20282000242000BF0C37BD465DF8047B7047000080B400AF0B4B1B6893F87630002B08D0D4
:20284000084B1B68DB6C002B03D0064B1B68DB6C02E0044B1B689B681846BD465DF8047B56
:20286000704700BFD0AC002480B582B000AF7860064A7B681A607B6804331846FFF75EFCDF
:202880007B6818460837BD4680BD00BF2467020880B582B000AF78607868FFF7E5FF3C211F
:2028A00078681FF095FB7B6818460837BD4680BD80B483B000AF786000BF0C37BD465DF891
:2028C000047B704780B483B000AF786000BF0C37BD465DF8047B704780B483B000AF786056
:2028E00000BF0C37BD465DF8047B704780B483B000AF786000BF0C37BD465DF8047B7047CA
:2029000080B483B000AF78600B46FB7000BF0C37BD465DF8047B704780B582B000AF78608F
:2029200039607B6804333968184617F0D9F900BF0837BD4680BD000080B582B000AF7860E0
:202940007B681846FFF722FE094A7B681A607B6800229A627B68002283F82C207B6801219E
:202960001846FFF754FF7B6818460837BD4680BDB861020880B483B000AF786039607B6863
:202980003A689A6200BF0C37BD465DF8047B704780B483B000AF78607B6893F82C301846F3
:2029A0000C37BD465DF8047B7047000080B582B000AF7860054A7B681A607B681846FFF775
:2029C000F7FD7B6818460837BD4680BDB861020880B582B000AF78607868FFF7E7FF302125
:2029E00078681FF0F5FA7B6818460837BD4680BD80B582B000AF78607B681846FFF79CFF79
:202A00000C4A7B681A607B682E334FF6FF711846FFF740FA7B6830334FF6FF711846FFF72D
:202A200039FA7B68FF2283F832207B6818460837BD4680BDA863020880B582B000AF7860CF
:202A4000054A7B681A607B681846FFF7AFFF7B6818460837BD4680BDA863020880B582B0A9
:202A600000AF78607868FFF7E7FF342178681FF0AFFA7B6818460837BD4680BD80B483B0FF
:202A800000AF78600B46FB707B68FA7883F8322000BF0C37BD465DF8047B704780B483B0DA
:202AA00000AF7860052318460C37BD465DF8047B704780B483B000AF78600B467B807B681B
:202AC0007A881A807B6818460C37BD465DF8047B7047000080B582B000AF78607B68184619
:202AE000FFF754FD134A7B681A607B6826334FF6FF711846FFF7DDFF7B68283300211846F7
:202B0000FFF766FE7B6800229A857B68FF2283F82E207B68002283F82F207B68002283F81B
:202B200030207B68002283F831207B6818460837BD4680BD2C63020880B584B002AF786029
:202B40003960002300930023002200217868FFF781F978680837BD4680BD80B483B000AFFB
:202B6000786039607B683A689A6200BF0C37BD465DF8047B704780B483B000AF78600B4694
:202B8000FB707B68FA7883F82E2000BF0C37BD465DF8047B7047F0B585B000AF78600B466A
:202BA0007B807E687B681B6830331C687D88786800F045F80346BB8107F10C031846FEF7F6
:202BC000BDFA03461A682C321268184690470346EB1A9BB21BB219463046A04700BF143738
:202BE000BD46F0BD80B582B000AF78600B467B8013463B807A687B681B682C331B68B7F9FD
:202C00000210104698477B681B6864331B68B7F9002011467868984700BF0837BD4680BDC9
:202C200080B483B000AF78600B467B807B687A889A8500BF0C37BD465DF8047B704780B492
:202C400083B000AF78607B68DB8C18460C37BD465DF8047B704780B483B000AF78600D2323
:202C600018460C37BD465DF8047B704780B582B000AF7860054A7B681A607B681846FFF754
:202C8000F3FD7B6818460837BD4680BDAC46020880B582B000AF78607868FFF7E7FF40217D
:202CA00078681FF095F97B6818460837BD4680BD80B582B000AF7860054A7B681A607B685A
:202CC000184600F0D3FB7B6818460837BD4680BD6044020880B582B000AF78607868FFF7A6
:202CE000E7FF102178681FF073F97B6818460837BD4680BD80B582B000AF7860214A7B6866
:202D00001A607B6803F538731846FFF7D1FF7B6803F51473184618F08AF87B6803F50273F5
:202D2000184600F081FB7B6803F5E073184600F059FB7B6803F5BC73184600F053FB7B6870
:202D400003F59873184600F04DFB7B68E833184600F004FB7B689833184600F0DDFA7B68D9
:202D60006C331846FFF796FC7B6840331846FFF791FC7B681846FFF779FF7B681846083768
:202D8000BD4680BD2444020880B582B000AF78607868FFF7AFFF4FF43C7178681FF018F91F
:202DA0007B6818460837BD4680BD80B483B000AF786000BF0C37BD465DF8047B704780B4A1
:202DC00083B000AF786000BF0C37BD465DF8047B7047000090B583B000AF0346FB710B467C
:202DE000BB7113467B71FDF78DFE0346002B05D1094B0A4A38210A481FF004FDFFF718FD2B
:202E000003682C331C687B79BA79F979A047034618460C37BD4690BD903D0208D43D0208B8
:202E2000303E020890B593B002AF78607B68184600F03CFBDD4A7B681A607B6803F1400402
:202E400007F108034FF6FF711846FFF723F807F1080319462046FFF7FBFB7B6803F16C0450
:202E600007F10C034FF6FF711846FFF713F807F10C0319462046FFF7EBFB7B689833184683
:202E800000F02AFB7B68E833184600F045FB7B6803F59873184600F05FFB7B6803F5BC73F9
:202EA000184600F059FB7B6803F5E073184600F053FB7B6803F50273184600F06DFB7B68BD
:202EC00003F51473184617F0C1FF7B6803F53870B74B3B6100237B6107F110030CCB79686B
:202EE00000F08AFB7B684033002200211846FFF77AF87B6803F1400407F118030021184651
:202F0000FEF7C8FF07F118031946204618F084FE7B686C33E8225A211846FFF764F87B68F9
:202F200003F16C0407F11C0302211846FEF7B2FF07F11C031946204618F06EFE7B689833F1
:202F4000F222B4211846FFF74EF87B6803F1980407F120030C211846FEF79CFF07F1240326
:202F60000C211846FEF796FF07F1240207F120031946204618F08DFD7B6803F198027B6858
:202F800003F5387319461046FFF7F4FC7B6803F1E800722300934FF4F0736FF016020021CE
:202FA000FEF7D6FF7B6803F59870262300934FF496731E225A21FEF7CBFF7B6803F59874DB
:202FC00059223A212120FFF705FF034619462046FFF7C3FD7B6803F5987300211846FFF7C1
:202FE0001FFE7B6803F5987407F1280301211846FFF75FFD398D204618F0E6FC7B6803F1EB
:20300000E8027B6803F598731946104616F068FE7B6803F5BC701C2300934FF4F0734F22CF
:203020000021FEF795FF7B6803F5BC7459223A212120FFF7CFFE034619462046FFF78DFD73
:203040007B6803F5BC7300211846FFF7E9FD7B6803F5BC7300211846FFF78DFD7B6803F527
:20306000BC7407F12C0304211846FFF722FDB98D204618F0A9FC7B6803F1E8027B6803F56C
:20308000BC731946104616F02BFE7B6803F5E0701C2300934FF4F0733B220021FEF758FFB0
:2030A0007B6803F5E07459223A212120FFF792FE034619462046FFF750FD7B6803F5E073C5
:2030C00000211846FFF7ACFD7B6803F5E07300211846FFF750FD7B6803F5E07407F1300388
:2030E00003211846FFF7E5FC398E204618F06CFC7B6803F1E8027B6803F5E0731946104636
:2031000016F0EEFD7B6803F502730022B4211846FEF769FF7B6803F5027407F134030D210E
:203120001846FEF7B7FE07F138030D211846FEF7B1FE07F1380207F134031946204618F0F6
:20314000A8FC7B6803F502727B6803F5387319461046FFF70FFC7B6803F502730021184671
:20316000FFF78CFC7B6803F1E8027B6803F502731946104616F0B4FD7B6803F51473A72229
:2031800040F277111846FEF72EFF7B6803F5147300211846FFF72BFB7B6803F5147407F19D
:2031A0003C0306211846FEF775FE09E024440208D532000800007A44000020420000000059
:2031C00007F13C031946204617F0CEFF7B6803F5147350211846FEF724FF7B6803F5147374
:2031E00050211846FEF72CFF7B6803F51473F1EE040AB1EE040A1846FFF738F87B6803F585
:2032000014731FED120A184617F0C9FF7B6803F514731FED180A1846FFF70CF87B6803F50F
:2032200014731FED1C1A5FED1C0A1FED1D0A1846FEF7D1FF7B6803F514735FED210A1FED18
:20324000220A1846FEF7E1FF7B6803F514731FED251A5FED260A1FED270A184618F05FF8EC
:203260007B6803F5147300211846FEF794FF7A687B68403319461046FFF74EFB7A687B68F4
:203280006C3319461046FFF747FB7A687B68983319461046FFF740FB7A687B68E8331946ED
:2032A0001046FFF739FB7A687B6803F5147319461046FFF731FB7B6818464437BD4690BD67
:2032C00080B483B000AF786000BF0C37BD465DF8047B704780B582B000AF786039607B6806
:2032E00098333A689A4206D17B681B682C331B68786898470BE07B6803F502733A689A42EE
:2033000005D17B681B6830331B687868984700BF0837BD4680BD000080B582B000AF7860A0
:20332000054A7B681A607B681846FFF785FB7B6818460837BD4680BD2846020880B582B08B
:2033400000AF78607868FFF7E7FF502178681EF03FFE7B6818460837BD4680BD80B582B067
:2033600000AF7860054A7B681A607B681846FEF7E5FE7B6818460837BD4680BD884502086A
:2033800080B582B000AF78607868FFF7E7FF482178681EF01DFE7B6818460837BD4680BD51
:2033A00080B582B000AF7860054A7B681A607B681846FFF7FDF87B6818460837BD4680BD87
:2033C0002C63020880B582B000AF78607868FFF7E7FF342178681EF0FBFD7B6818460837EF
:2033E000BD4680BD80B582B000AF7860054A7B681A607B681846FFF7D3FF7B68184608376A
:20340000BD4680BDFC44020880B582B000AF78607868FFF7E7FF482178681EF0D9FD7B6868
:2034200018460837BD4680BD80B582B000AF7860054A7B681A607B681846FFF7FDFA7B6804
:2034400018460837BD4680BD7844020880B582B000AF78607868FFF7E7FF482178681EF0C8
:20346000B7FD7B6818460837BD4680BD80B483B000AF7860044A7B681A607B6818460C37BB
:20348000BD465DF8047B7047E046020880B582B000AF78607868FFF7E9FF042178681EF0AF
:2034A00097FD7B6818460837BD4680BD80B582B000AF78607B6818461AF0C8FC054A7B6889
:2034C0001A607B680022DA637B6818460837BD4680BD00BFAC46020880B582B000AF7860C7
:2034E0007B681846FFF784FA0A4A7B681A607B68002283F833207B6800229A867B68002269
:20350000DA867B680022DA647B6818460837BD4680BD00BF2846020880B582B000AF786023
:203520007B681846FEF7F4FD0A4A7B681A607B68002283F82C207B680022DA857B6800227E
:203540001A867B6800225A647B6818460837BD4680BD00BF8845020880B582B000AF7860C4
:203560007B681846FFF7B6FA0A4A7B681A607B68002283F832207B6800229A867B680022B7
:20358000DA867B6800225A647B6818460837BD4680BD00BFFC44020880B582B000AF786051
:2035A0007B681846FFF724FA0A4A7B681A607B68002283F833207B6800229A867B68002208
:2035C000DA867B6800225A647B6818460837BD4680BD00BF7844020880B483B000AF786095
:2035E000044A7B681A607B6818460C37BD465DF8047B7047E046020880B584B000AFF8606E
:20360000B960394681E80C00FB681846FFF7E4FF084AFB681A60FB68BA685A60FB680833F7
:203620003A4692E8030083E80300FB6818461037BD4680BD6044020880B582B000AF78603B
:2036400039607B685B687A68D268521098187B68DB6803F00103002B02D17B689B680AE012
:203660007B685B687A68D268521013441B687A68926813441B683968984700BF0837BD4615
:2036800080BD80B483B000AF78607B685B68002B10D07B689B68002B07D17B68DB6803F04C
:2036A0000103002B01D1012300E00023012B01D0012300E0002318460C37BD465DF8047B46
:2036C000704780B582B000AF78607B681846FEF7F1FC786800F00DF900BF0837BD4680BD0E
:2036E00080B483B000AF78600B467B807B687A88DA8600BF0C37BD465DF8047B704780B487
:2037000083B000AF78607B68DB8E18460C37BD465DF8047B704780B582B000AF78607B68A3
:203720001B6878331B6878689847034618460837BD4680BD80B483B000AF78607B6893F897
:20374000333018460C37BD465DF8047B704780B582B000AF78607B681846FEF7ABFC78682C
:2037600000F058F900BF0837BD4680BD80B483B000AF78600B467B807B687A88DA8600BF8C
:203780000C37BD465DF8047B704780B483B000AF78607B68DB8E18460C37BD465DF8047BA6
:2037A000704780B582B000AF78607B681B6880331B6878689847034618460837BD4680BDE3
:2037C00080B483B000AF78607B6893F8323018460C37BD465DF8047B704780B582B000AFE6
:2037E00078607B681846FEF765FC786800F0A3F900BF0837BD4680BD80B483B000AF7860C2
:203800000B467B807B687A881A8600BF0C37BD465DF8047B704780B483B000AF78607B6876
:203820001B8E18460C37BD465DF8047B704780B582B000AF78607B681B6894331B68786832
:203840009847034618460837BD4680BD80B483B000AF78607B6893F82C3018460C37BD4607
:203860005DF8047B704780B582B000AF78607B681846FEF71FFC786800F007FA00BF0837AF
:20388000BD4680BD80B483B000AF78600B467B807B687A88DA8600BF0C37BD465DF8047B90
:2038A000704780B483B000AF78607B68DB8E18460C37BD465DF8047B704780B582B000AFD2
:2038C00078607B681B6878331B6878689847034618460837BD4680BD80B483B000AF7860A9
:2038E0007B6893F8333018460C37BD465DF8047B704790B585B000AF78607B6893F83330F6
:20390000002B00F083807B689A8E7B68DB8E9A4206D27B689B8E01339AB27B689A8675E09A
:203920007B689B8E1A467B68DB8E19467B681B8F0B449A4231D87B689B8E1A467B68DB8EF7
:20394000D31AFB607B681C6CFB6898B27B68B3F93C309AB27B68B3F93A309BB2D31A9BB240
:203960001AB27B681B8F0021A04703467B8178687B68B3F93A30DAB27B89DBB21344DBB2C7
:203980001946FFF77BF87B68184619F048FF7B689B8E01339AB27B689A867B689B8E1A46D3
:2039A0007B68DB8E19467B681B8F0B449A422DD97B68002283F833207B6800221A8719F01C
:2039C00085FA02467B681946104619F0B5FA7B685B6C002B0DD07B685A6C7B685B6C1B6848
:2039E0000C331B68104698470346002B01D0012300E00023002B09D07B685A6C7B685B6C0D
:203A00001B6808331B6879681046984700BF1437BD4690BD90B585B000AF78607B6893F886
:203A20003230002B00F083807B689A8E7B68DB8E9A4206D27B689B8E01339AB27B689A866C
:203A400075E07B689B8E1A467B68DB8E19467B681B8F0B449A4231D87B689B8E1A467B68EA
:203A6000DB8ED31AFB607B681C6CFB6898B27B68B3F93C309AB27B68B3F93A309BB2D31A03
:203A80009BB21AB27B681B8F0021A04703467B8178687B68B3F93A30DAB27B89DBB21344E6
:203AA000DBB21946FFF767F87B68184619F0B7FE7B689B8E01339AB27B689A867B689B8E2B
:203AC0001A467B68DB8E19467B681B8F0B449A422DD97B68002283F832207B6800221A87A5
:203AE00019F0F4F902467B681946104619F024FA7B685B6C002B0DD07B685A6C7B685B6CC4
:203B00001B680C331B68104698470346002B01D0012300E00023002B09D07B685A6C7B682F
:203B20005B6C1B6808331B6879681046984700BF1437BD4690BD90B585B000AF78607B6829
:203B400093F82C30002B00F09C807B68DA8D7B681B8E9A4206D27B68DB8D01339AB27B680F
:203B6000DA858EE07B68DB8D1A467B681B8E19467B685B8E0B449A424AD87B68DB8D1A461E
:203B80007B681B8ED31AFB607B68DC6BFB6898B27B68B3F938309AB27B68B3F934309BB2F7
:203BA000D31A9BB21AB27B685B8E0021A04703467B817B681C6CFB6898B27B68B3F93A30D5
:203BC0009AB27B68B3F936309BB2D31A9BB21AB27B685B8E0021A04703463B8178687B68B5
:203BE000B3F934309AB27B8913449BB219B27B68B3F936309AB23B8913449BB21BB21A4620
:203C0000FEF762FA7B68DB8D01339AB27B68DA857B68DB8D1A467B681B8E19467B685B8EE4
:203C20000B449A422DD97B68002283F82C207B680022DA8519F04AF902467B6819461046F7
:203C400019F07AF97B685B6C002B0DD07B685A6C7B685B6C1B680C331B6810469847034620
:203C6000002B01D0012300E00023002B09D07B685A6C7B685B6C1B6808331B687968104652
:203C8000984700BF1437BD4690BD90B585B000AF78607B6893F83330002B00F09C807B68FF
:203CA0009A8E7B68DB8E9A4206D27B689B8E01339AB27B689A868EE07B689B8E1A467B6890
:203CC000DB8E19467B681B8F0B449A424AD87B689B8E1A467B68DB8ED31AFB607B685C6C97
:203CE000FB6898B27B68B3F93E309AB27B68B3F93A309BB2D31A9BB21AB27B681B8F0021D4
:203D0000A04703467B817B689C6CFB6898B27B68B3F940309AB27B68B3F93C309BB2D31A5F
:203D20009BB21AB27B681B8F0021A04703463B8178687B68B3F93A309AB27B8913449BB203
:203D400019B27B68B3F93C309AB23B8913449BB21BB21A46FEF7B8F97B689B8E01339AB28A
:203D60007B689A867B689B8E1A467B68DB8E19467B681B8F0B449A422DD97B68002283F8EB
:203D800033207B6800229A8619F0A0F802467B681946104619F0D0F87B68DB6C002B0DD027
:203DA0007B68DA6C7B68DB6C1B680C331B68104698470346002B01D0012300E00023002B9F
:203DC00009D07B68DA6C7B68DB6C1B6808331B6879681046984700BF1437BD4690BD000006
:203DE00080B400AF024B1846BD465DF8047B7047F046020880B400AF0E231846BD465DF89D
:203E0000047B704780B485B000AFF860B9601346FB80074AFB681360064ABB681360064AB2
:203E2000FB88138000BF1437BD465DF8047B70473CAD002444AD002440AD002490B585B027
:203E400000AF0346FB800023FB60FB88002B27D1FB881E4A52F82330002B16D0FB881B4A4A
:203E600052F82330BB60BB681B68BA681344184A1360BB685B68BA681344164A1360BB6841
:203E80009B68BA681344FB600AE0114B124A1A60124A104B1A60FB88114A52F82330FB6028
:203EA000FB68002B0DD00F4AFB88138000F03EF8044600F033F803461A462146F868FFF737
:203EC000A1FF00BF1437BD4690BD00BFFC0F00240410002408100024CC4B2D90A84B2D9002
:203EE000E44D2D900010002480B483B000AF78600B467B80074B1A68074B19687B889B0021
:203F00000B441B685B00134418460C37BD465DF8047B7047041000240810002480B400AF97
:203F200009231846BD465DF8047B704780B400AF024B1846BD465DF8047B70470C1000240D
:203F400080B500AFFDF7E8F90346044A1360FDF737FA0346014A536000BF80BD0C100024F6
:203F600080B500AFFFF7ECFF80BD80B483B000AF78607B685B684FF47A7202FB03F31B0965
:203F800018460C37BD465DF8047B704780B582B000AF7860054A7B681A607B681846FDF723
:203FA000ABFC7B6818460837BD4680BD1048020880B582B000AF78607868FFF7E7FF4FF44B
:203FC000AC7178681EF004F87B6818460837BD4680BD000080B584B000AFF860B9607A60B7
:203FE000FB687A68B9681846FDF700FD074AFB681A60FB68BA68C3F85021FB680022C3F8ED
:020000040800F2
:204000005421FB6818461037BD4680BD1048020890B583B000AF78607B68D3F850311846F5
:2040200004F021FD7B68184618F022FE7B68D3F854417B68D3F850311846FFF796FF034661
:204040009C422CBF01230023DBB2002B17D07B68D3F85031184604F024FD034683F001034F
:20406000DBB2002B06D07B68D3F850310121184604F003FD7B680022C3F8542106E07B6811
:20408000D3F854315A1C7B68C3F8542100BF0C37BD4690BD80B582B000AF786039607B688B
:2040A0003968184618F09EFD786800F026F800BF0837BD4680BD80B582B000AF78603960AB
:2040C0007B683968184618F0B5FD786800F015F800BF0837BD4680BD80B582B000AF78603B
:2040E00039607B683968184618F0AEFD786800F004F800BF0837BD4680BD80B582B000AF72
:2041000078607B680022C3F854217B68D3F850310021184604F0B1FC00BF0837BD4680BD05
:2041200080B483B000AF78607B681B6C07EE903AB0EE670A0C37BD465DF8047B7047000088
:2041400080B582B000AF7860054A7B681A607B681846FEF7A1F87B6818460837BD4680BD36
:204160004C48020880B582B000AF78607868FFF7E7FF4FF4A87178681DF02AFF7B68184644
:204180000837BD4680BD000080B582B000AF78607B681846FEF7AEF8054A7B681A607B6847
:2041A0000022C3F84C217B6818460837BD4680BD4C48020880B582B000AF78607B68184628
:2041C000FEF796F900BF0837BD4680BD80B582B000AF786087ED000A7B68BC33D7ED007AA1
:2041E00077EEA77AB0EE670A184616F0D8FF7B682C3397ED000A184616F0D1FF00BF0837ED
:20420000BD4680BD80B582B000AF78600B46FB707B68BC33FA7811461846FDF7CCFFFB7889
:20422000FF2B06D17B682C3300211846FEF7DFFA05E07B682C3301211846FEF7D8FAFB780D
:20424000002B06D17B68BC3300211846FEF7CFFA05E07B68BC3301211846FEF7C8FA00BFA0
:204260000837BD4680BD90B585B000AF786039607B683A68C3F84C217B6803F12C043B68CE
:204280009BB203339AB207F1080311461846FDF701FE07F108031946204616F065FF7B688F
:2042A0002C33C8211846FDF7BCFE7B682C33C8211846FDF7C5FE7B6803F1BC043B689BB2E3
:2042C00009339AB207F10C0311461846FDF7E2FD07F10C031946204616F046FF7B68BC33DE
:2042E000C8211846FDF79DFE7B68BC33C8211846FDF7A6FE00BF1437BD4690BD80B483B076
:2043000000AF78600B46FB707B68FA7883F8282000BF0C37BD465DF8047B704780B582B04B
:2043200000AF7860054A7B681A607B681846FEF7D3F97B6818460837BD4680BDE048020856
:2043400080B582B000AF78607868FFF7E7FF582178681DF03DFE7B6818460837BD4680BD52
:2043600080B582B000AF78607B681846FEF7DCF9034A7B681A607B6818460837BD4680BDDA
:20438000E048020880B582B000AF78607B681846FEF714FA00BF0837BD4680BD80B582B014
:2043A00000AF78600B46FB707B682C33FA7811461846FFF7A3FF00BF0837BD4680BD80B447
:2043C00083B000AF786000BF0C37BD465DF8047B704780B483B000AF786000BF0C37BD46A0
:2043E0005DF8047B7047000080B483B000AF7860044A7B681A607B6818460C37BD465DF8BD
:20440000047B7047C449020880B582B000AF78607868FFF7E9FF042178681DF0D9FD7B68D8
:2044200018460837BD4680BD80B483B000AF7860044A7B681A607B6818460C37BD465DF82A
:20444000047B7047C449020880B483B000AF7860064A7B681A607B6800225A607B68184674
:204460000C37BD465DF8047B704700BFAC49020880B483B000AF7860044A7B681A607B6831
:2044800018460C37BD465DF8047B7047AC49020880B582B000AF78607868FFF7E9FF082119
:2044A00078681DF095FD7B6818460837BD4680BD80B483B000AF78600B46FB7000BF0C3711
:2044C000BD465DF8047B704780B483B000AF7860002318460C37BD465DF8047B704700000E
:2044E00080B582B000AF7860094A7B681A60094A7B685A607B6804331846FFF7B9FF7B6825
:204500001846FFF771FF7B6818460837BD4680BD7449020894490208A0F10400E0E700BF4E
:2045200080B582B000AF78607868FFF7D9FF102178681DF04DFD7B6818460837BD4680BDB7
:20454000A0F10400ECE7000080B582B000AF786039607B681846FFF767FF7B680433184657
:20456000FFF772FF064A7B681A60064A7B685A607B683A68DA607B6818460837BD4680BDBB
:20458000744902089449020880B483B000AF786000BF0C37BD465DF8047B704780B483B088
:2045A00000AF786000BF0C37BD465DF8047B704780B582B000AF78600B46FB707B689B6854
:2045C000FA781146184604F07FFA00BF0837BD4680BD80B582B000AF78600B46FB707B687C
:2045E000DA687B68DB681B6834331B68F9781046984700BF0837BD4680BDA0F10400FFF777
:20460000E8BF80B582B000AF78607B68DA687B68DB681B6838331B6810469847034618466D
:204620000837BD4680BDA0F10400FFF7EABF000080B483B000AF7860044A7B681A607B684B
:2046400018460C37BD465DF8047B7047AC4B020880B483B000AF7860044A7B681A607B68AE
:2046600018460C37BD465DF8047B7047AC4B020880B582B000AF78607868FFF7E9FF042139
:2046800078681DF0A5FC7B6818460837BD4680BD80B483B000AF78607B68B3F900309AB2D3
:2046A0007B68B3F904309BB213449BB21BB218460C37BD465DF8047B704780B483B000AF34
:2046C00078607B68B3F902309AB27B68B3F906309BB213449BB21BB218460C37BD465DF879
:2046E000047B704780B582B000AF78600B467B8013463B807B68B3F90030B7F902209A42C9
:204700001ADB7868FFF7C4FF03461A46B7F90230934211DA7B68B3F90230B7F900209A4253
:204720000ADB7868FFF7C9FF03461A46B7F90030934201DA012300E0002318460837BD46F6
:2047400080BD000080B584B000AFF860084611461A460346FB720B463B811346FB80FB68AD
:204760001846FFF765FF0A4AFB681A60FB68FA7A1A71FB683A89DA80FB68FA881A81FB688B
:204780003A8B5A81FB6818461037BD4680BD00BF984B020880B582B000AF7860054A7B6865
:2047A0001A607B681846FFF753FF7B6818460837BD4680BD984B020880B582B000AF78605B
:2047C0007868FFF7E7FF0C2178681DF001FC7B6818460837BD4680BD80B483B000AF786058
:2047E0007B68B3F9063018460C37BD465DF8047B704780B483B000AF78607B68B3F9083010
:2048000018460C37BD465DF8047B704780B483B000AF78607B681B7918460C37BD465DF80B
:20482000047B704780B483B000AF7860002318460C37BD465DF8047B704780B483B000AFEC
:2048400078607B68B3F90A3018460C37BD465DF8047B704780B483B000AF78607B68B3F90B
:204860000C3018460C37BD465DF8047B704780B483B000AF78607B68B3F9063018460C3779
:20488000BD465DF8047B704780B483B000AF78607B681B7918460C37BD465DF8047B7047F6
:2048A00080B483B000AF78607B68043318460C37BD465DF8047B704780B483B000AF7860D3
:2048C0007B68B3F9043018460C37BD465DF8047B704780B483B000AF78607B68B3F9063033
:2048E00018460C37BD465DF8047B704780B483B000AF78607B68B3F9083018460C37BD4630
:204900005DF8047B704780B483B000AF78600B46FB707B68FA7883F8682000BF0C37BD4605
:204920005DF8047B704780B582B000AF786039607B6804333968184615F0A0F900BF0837B0
:20494000BD4680BD80B483B000AF78607B6893F8323018460C37BD465DF8047B704780B4F6
:2049600083B000AF78607B6893F82E3018460C37BD465DF8047B704780B483B000AF87EDF8
:20498000000B97ED007BB0EEC77BB0EE470B0C37BD465DF8047B704780B483B000AF87EDE2
:2049A000010AD7ED017AF0EEE77AB0EE670A0C37BD465DF8047B704780B582B000AF7860A0
:2049C000054A7B681A607B68184603F023FB7B6818460837BD4680BD684B020880B582B0F5
:2049E00000AF78607868FFF7E7FF102178681DF0EFFA7B6818460837BD4680BD90B583B035
:204A000000AF78601E4A7B681A607B6803F2E443002B10D07B6803F2E44303F5B6647B684C
:204A200003F2E4439C4206D0A4F5B67423681B6820469847F3E77B6803F54573002B0FD019
:204A40007B6803F5457303F5E8747B6803F545739C4205D0743C23681B6820469847F4E74B
:204A600000BF7B6803F541731846FFF7A5FF7B681846FEF73FF97B6818460C37BD4690BDAE
:204A8000DC49020880B582B000AF78607868FFF7B5FF40F60C3178681DF09AFA7B6818463A
:204AA0000837BD4680BD80B483B000AF78600B46FB707B68FA7883F8E92A7B680022C3F82A
:204AC000F02A00BF0C37BD465DF8047B704780B483B000AF78607B6893F8E93A18460C370C
:204AE000BD465DF8047B7047B0B584B000AF78607B681846FEF796F97B4A7B681A607B683E
:204B000003F54170794BBB600023FB6007F108030CCB796803F0F4FA7B6803F54573032439
:204B20001D4604E0284603F00BFB013C7435002CF8DA7B6803F2E44303241D4605E0284607
:204B400003F020FB013C05F5B675002CF7DA7B68A522C3F8942A7B682822C3F8982A7B6838
:204B600003F52A634FF000021A607B6803F6A4235F4A1A607B6803F6A8234FF000021A60CD
:204B80007B6803F6AC234FF07C521A607B68D3F8983A07EE903AF8EEE77A37EEA77AF7EE32
:204BA000006AC6EE877A7B6803F52B63C3ED007A7B68D3F8983A07EE903AB8EEE77A7B681A
:204BC00003F6A823D3ED007A77EE677A7B6803F6B423C3ED007A7B6803F6C8234FF00002AC
:204BE0001A607B6803F6CC234FF000021A607B6803F52D634FF000021A607B6803F6D423BC
:204C00004FF000021A607B6803F6D8234FF000021A607B680022C3F8DC2A7B68002283F801
:204C2000E82A7B68002283F8E92A7B68002283F8EA2A7B68002283F8EB2A7B680022C3F8E6
:204C4000EC2A7B680022C3F8F02A7B68002283F8F42A7B680322C3F8F82A7B680022C3F821
:204C6000FC2A7B68002283F8002B7B68002283F8012B7B68012283F8022B7B680022C3F849
:204C8000042B7B6803F6B8234FF000021A607B6803F6BC234FF000021A607B6803F52C6393
:204CA0004FF000021A607B6803F6C4234FF000021A607B680A22C3F8F0227B683222C3F8ED
:204CC000F4227B686FF01602C3F8F8227B686FF06302C3F8FC227B680022C3F800237B6849
:204CE00018461037BD46B0BDDC4902089D7F000800000C4390B52DED028B8BB000AF78604F
:204D0000FBF700FF034601211846FFF7FCFD7B681846FEF7D5FA00237B6207E17B6803F522
:204D20002A6393ED007A7B6A07EE903AF8EEE77ADFED826A67EEA67A77EE277A7A687B6A07
:204D400003F2AE239B001344C3ED007A7B6803F6A42393ED008A7A687B6A03F2AE239B009C
:204D60001344D3ED007AB0EE670A1DF0D9FAB0EE407A7B68D3F8943A07EE903AF8EEE77AD9
:204D800067EE277A78EE277AB7EEE77A87ED047B7B6803F6A82393ED008A7A687B6A03F2B0
:204DA000AE239B001344D3ED007AB0EE670A1DF0F3F9B0EE407A7B68D3F8983A07EE903A57
:204DC000F8EEE77A67EE277A78EE277AB7EEE77A87ED027B7B6A4FF4B67202FB03F303F55D
:204DE0009C637A681344181D7A687B6A4FF4B67101FB03F3134403F2E4431B6834331B6843
:204E000097ED047BFDEEC77B17EE902A11B297ED027BFDEEC77B17EE902A12B298477B6A6B
:204E20004FF4B67202FB03F303F59C637A6813441C1D7B6A4FF4B67202FB03F303F59C6371
:204E40007A68134404331846FFF743FD034607EE903AB8EEE77A7B6803F6B423D3ED007A52
:204E600037EE277A7B6803F52B63D3ED007A67EE277AB0EE670A2046FFF7A8F97B6A4FF49F
:204E8000B67202FB03F303F59C637A68134404331846FFF71EFD03461A46DB00D31AFF337E
:204EA0003B623B6AFF2B02DDFF233B6204E03B6A002B01DA00233B627B6A4FF4B67202FB4C
:204EC00003F303F59C637A68134404333A6AD2B211461846FFF796F97B6A4FF4B67202FBC6
:204EE00003F303F59C637A681344181D7A6A144B83FB0231D317C91A0B465B000B44D11AB0
:204F0000FFF7B1F97B6A4FF4B67202FB03F303F59C637A6813441A1D7B6803F54173194659
:204F2000104603F051F97B6A01337B627B6A032B7FF7F4AE0023FB61BAE000BFDB0FC93FF3
:204F40005655555500002A437B6803F6A423D3ED007AB3EE047A37EE878A7A68FB6903F222
:204F6000AE239B001344D3ED007AB0EE670A1DF0D7F9B0EE407A7B68D3F8943A07EE903AB5
:204F8000F8EEE77A67EE277A78EE277AB7EEE77A87ED047B7B6803F6A823D3ED007A1FEDE7
:204FA000177A37EE878A7A68FB6903F2AE239B001344D3ED007AB0EE670A1DF0EDF8B0EE53
:204FC000407A7B68D3F8983A07EE903AF8EEE77A67EE277A78EE277AB7EEE77A87ED027B9D
:204FE000FB69742202FB03F303F544737A681344181D7A68FB69742101FB03F3134403F58B
:2050000045731B6834331B6897ED047BFDEEC77B17EE902A11B297ED027BFDEEC77B17EE86
:20502000902A12B29847FB69742202FB03F303F544737A68134404331846FFF74AFC034624
:20504000C3F1D2039B00BB61BB69FE2B01DDFF23BB61FB69742202FB03F303F544737A6829
:2050600013441A1DBB69DBB2DB43DBB219461046FFF794F97868FB69742202FB03F303F549
:2050800044737A68134404331946FDF745FC7868FB694FF4B67202FB03F303F59C637A68DA
:2050A000134404331946FDF737FCFB690133FB61FB69032B7FF748AF7B68012283F8022B3B
:2050C00000BF2C37BD46BDEC028B90BD80B582B000AF78607B681846FDF7FEFB00BF08370E
:2050E000BD4680BDB0B58AB000AF786039607B6893F8013B002B7ED07B6803F514731846CE
:20510000FFF7CEFB04463868FFF766FB03461D463868FFF76EFB03461A4629462046FFF770
:20512000E1FA0346002B1CD03868FFF76FFB0346002B02D0012B05D012E07B68012283F87A
:20514000082B0EE07B6893F8083B002B08D07B68DA6B7B6893F8023B19461046FFF728FADA
:2051600000BF00237B6242E07B6A4FF4B67202FB03F303F59C637A68134404331846FFF750
:205180008FFB04463868FFF727FB03461D463868FFF72FFB03461A4629462046FFF7A2FA07
:2051A0000346002B17D07B6A4FF4B67202FB03F303F59C637A68134404331846FFF789FB12
:2051C0000346642B07D13868FFF720FB0346012B01D1012300E00023002B05D07B681B689A
:2051E00030331B68786898477B6A01337B627B6A032BB9DD51E23868FFF708FB0346002B2B
:205200000CBF01230023DBB2002B00F021817B68002283F8E82A7B68002283F8F42A386862
:20522000FFF7DAFA034607EE903AB8EEE77A7B6803F6A423D3ED007A77EE677AC7ED067A3E
:205240003868FFF7D6FA0346962B08DD3868FFF7D0FA034607EE903AF8EEE77A01E0DFED9D
:20526000CA7AC7ED057A7B6803F6A823D3ED007A97ED057A77EE677AC7ED047AD7ED047A19
:2052800027EEA77AD7ED067A67EEA77A77EE277AB0EE670A1CF02AFF87ED030A3868FFF7BD
:2052A0009BFA034607EE903AB8EEE77A7B6803F6A423D3ED007AB4EEE77AF1EE10FAACBF16
:2052C00001230023DBB2002B15D097ED047AD7ED037AC7EE276AB0EE660A1CF0BBFEF0EEB0
:2052E000407A9FEDAA7A67EE877A7B6803F69C23C3ED007A33E03868FFF76EFA034607EEDA
:20530000903AB8EEE77A7B6803F6A423D3ED007AB4EEE77AF1EE10FA4CBF01230023DBB214
:20532000002B1CD097ED047AD7ED037AC7EE276AB0EE660A1CF08EFEF0EE407A9FED947AF5
:2053400077EE677A9FED927A77EE877A9FED8F7A67EE877A7B6803F69C23C3ED007A7B6876
:2053600003F52A63D3ED007ADFED8A0AB0EE670A1CF09CFEF0EE407A7B6803F52A63C3EDA9
:20538000007A00233B625FE07B6803F52A6393ED007A3B6A07EE903AF8EEE77ADFED7C6AD5
:2053A00067EEA67A77EE277A7A683B6A03F2AE239B001344C3ED007A7A683B6A03F2AE23BC
:2053C0009B001344D3ED007A9FED727AF4EEC77AF1EE10FA14DD7A683B6A03F2AE239B0044
:2053E0001344D3ED007A9FED6B7A77EEC77A7A683B6A03F2AE239B001344C3ED007A20E09C
:205400007A683B6A03F2AE239B001344D3ED007AF5EEC07AF1EE10FA13D57A683B6A03F2A9
:20542000AE239B001344D3ED007A9FED5A7A77EE877A7A683B6A03F2AE239B001344C3EDBA
:20544000007A3B6A01333B623B6A032B9CDD24E17B6893F8E83A83F00103DBB2002B17D065
:205460007B6893F8F43A002B0ED17B6803F52D6393ED007A7B6803F6CC23D3ED007AB4EE7A
:20548000E77AF1EE10FA03D5786801F0A5FC04E17B6893F8F43A83F00103DBB2002B00F0D8
:2054A000FC807B6893F8E83A83F00103DBB2002B00F0F3800023FB61EBE0FB694FF4B67235
:2054C00002FB03F303F59C637A68134404331846FFF7E6F904463868FFF77EF903461D463C
:2054E0003868FFF786F903461A4629462046FFF7F9F80346002B00F0C9807A68FB6903F24A
:20550000AE239B001344D3ED007A9FED237AF4EEC77AF1EE10FA0EDC7A68FB6903F2AE2363
:205520009B001344D3ED007AB5EE007AF4EEC77AF1EE10FA40D57B6803F598707B68D3F870
:20554000F0329AB2154B002102F04DFE7B6803F52A631A687B6803F6D8231A607B6803F608
:20556000D4230F4A1A607B6803F52D634FF000021A607B6803F6CC230A4A1A607B6801229C
:2055800083F8E82A82E000BF00001643CDCCCC3FDB0FC93FDB0FC940DB0FC1407DE1010829
:2055A000DB0FC93F00002042DB0FA93FDB0FE93FDB0F3940DB0F59407A68FB6903F2AE23C1
:2055C0009B001344D3ED007A1FED097AF4EEC77AF1EE10FA15DD7A68FB6903F2AE239B006B
:2055E0001344D3ED007A1FED0F7AF4EEC77AF1EE10FA06D57B681B682C331B687868984797
:2056000044E07A68FB6903F2AE239B001344D3ED007A1FED197AF4EEC77AF1EE10FA35DD71
:205620007A68FB6903F2AE239B001344D3ED007A1FED207AF4EEC77AF1EE10FA26D57B68A2
:2056400003F598707B68D3F8F0329AB2174B002102F0C9FD7B6803F52A631A687B6803F62D
:20566000D8231A607B6803F6D423114A1A607B6803F52D634FF000021A607B6803F6CC231C
:205680000C4A1A607B68012283F8E82AFB690133FB61FB69032B7FF710AF7B68396818460A
:2056A00018F09EFA00BF2837BD46B0BD7DE10108DB0FC9BF00002042B0B588B000AF78605D
:2056C00039607B6893F8013B002B20D07B6803F514731846FFF7E4F804463868FFF7ADF855
:2056E00003461D463868FFF7B5F803461A4629462046FEF7F7FF034683F00103DBB2002BDA
:2057000000F0D3807B68002283F8082BCDE07B6893F8F43A83F00103DBB2002B0AD07B685E
:2057200003F598707B68D3F8F0329AB2614B002102F059FD7B68012283F8F42A4FF0000357
:20574000FB613868FFF779F8034607EE903AB8EEE77A7B6803F6A423D3ED007A77EE677AB4
:20576000C7ED067A3868FFF775F80346962B08DD3868FFF76FF8034607EE903AF8EEE77AB7
:2057800001E0DFED4D7AC7ED057A7B6803F6A823D3ED007A97ED057A77EE677AC7ED047A06
:2057A000D7ED047A27EEA77AD7ED067A67EEA77A77EE277AB0EE670A1CF098FC87ED030A81
:2057C0003868FFF73AF8034607EE903AB8EEE77A7B6803F6A423D3ED007AB4EEE77AF1EE33
:2057E00010FAACBF01230023DBB2002B12D097ED047AD7ED037AC7EE276AB0EE660A1CF0B0
:2058000029FCF0EE407A9FED2D7A67EE877AC7ED077A30E03868FFF710F8034607EE903A57
:20582000B8EEE77A7B6803F6A423D3ED007AB4EEE77AF1EE10FA4CBF01230023DBB2002B8E
:2058400019D097ED047AD7ED037AC7EE276AB0EE660A1CF0FFFBF0EE407A9FED197A77EEA6
:20586000677A9FED177A77EE877A9FED147A67EE877AC7ED077A7B6803F52A6393ED007ABD
:205880007B6803F69C23D3ED006AD7ED077A76EEE77A77EE677AB0EE670A786801F0B8FB60
:2058A0007B6803F69C23FA691A6000BF2037BD46B0BD00BF7DE1010800001643CDCCCC3FC7
:2058C000DB0FC93F80B52DED028B84B000AF786039607B6893F8013B002B40F03D81386843
:2058E000FEF7D2FF0346002B0CBF01230023DBB2002B00F031817B6893F8F43A83F00103EF
:20590000DBB2002B0AD07B6803F598707B68D3F8F0329AB2934B002102F065FC3868FEF70F
:20592000A6FF034607EE903AB8EEE77BB0EE470BFFF722F8B0EE407BF7EEC77BC7ED027A02
:20594000D7ED027A77EEA77AB0EE670A1CF0A8FDF0EE407A7B6803F6CC23C3ED007A7B6851
:2059600003F52D634FF000021A607B6803F52A631A687B6803F6D8231A603868FEF777FF9E
:205980000346002B02DDBFEE007A01E0B7EE007AD7ED027ADFED746A67EEA67A67EE277A38
:2059A0007B6803F6D423C3ED007A7B6803F6D42393ED008A7B6803F6D423D3ED007ADFED34
:2059C0006B0AB0EE670A1CF071FBF0EE407A78EE677A7B6803F6D423C3ED007A0023FB6071
:2059E00096E07A68FB6803F2AE239B001344D3ED007A9FED5F7AF4EEC77AF1EE10FA14DD98
:205A00007A68FB6803F2AE239B001344D3ED007A9FED577A77EEC77A7A68FB6803F2AE2341
:205A20009B001344C3ED007A13E07A68FB6803F2AE239B001344D3ED007A9FED4D7A77EE68
:205A4000877A7A68FB6803F2AE239B001344C3ED007A7A68FB6803F2AE239B001344D3ED61
:205A6000007A9FED437AF4EEC77AF1EE10FAB8DC7A68FB6803F2AE239B001344D3ED007A8C
:205A8000F5EEC07AF1EE10FAABD47A68FB6803F2AE239B001344D3ED007AB0EE670AFEF746
:205AA0007BFFF0EE407A9FED317A77EEC77AB0EE670AFEF771FFB0EE408A7B68D3F8DC3A57
:205AC0007A6803F2AE239B001344D3ED007AB0EE670AFEF761FFF0EE407A9FED247A77EE67
:205AE000C77AB0EE670AFEF757FFF0EE407AB4EEE78AF1EE10FA4CBF01230023DBB2002B6D
:205B000003D07B68FA68C3F8DC2AFB680133FB60FB68032B9DDD7B6803F52A63D3ED007A0D
:205B2000DFED120AB0EE670A1CF0C0FAF0EE407A9FED0E7A37EE677A7B6803F6D423D3ED63
:205B4000007A77EE277A7B6803F6D423C3ED007A7B68012283F8E82A00BF1037BD46BDEC83
:205B6000028B80BD7DE10108CDCCCC3DDB0FC93FDB0FC94090B59DB002AF78607B6893F8E4
:205B8000E83A002B64D07B6803F52D63D3ED007A7B6803F6D82393ED007A7B6803F6D4233B
:205BA000D3ED006A7B6803F6CC2393ED006AF0EE461AB0EE661AF0EE470AB0EE670A78688C
:205BC00001F088FE87ED170A97ED170A786801F01FFA7B6803F52D63D3ED007AB7EE007A66
:205BE00077EE877A7B6803F52D63C3ED007A7B6803F52D6393ED007A7B6803F6CC23D3EDBA
:205C0000007AB4EEE77AF1EE10FA40F355837B68002283F8E82A7B6803F598747B6893F82C
:205C2000023B1A4607F13C0311461846FCF741FFB98F204615F0C8FE7B6803F598707B6869
:205C4000D3F8F0329AB2CD4BFF2102F0CCFA33E37B6893F8EA3A002B00F032827B6803F5C9
:205C60002D63D3ED007AB5EE007A67EE876A7B6803F6CC2393ED007AC6EE877AB7EE007A5E
:205C800077EE877AC7ED197A7B6803F52D63D3ED007A7B6803F6CC2393ED007AF0EE471AAE
:205CA000B5EE001AF7EE000AB0EE670A786801F049FEB0EE407AD7ED197A77EE677AC7ED68
:205CC000187A7B68D3F8043B4FF4B67202FB03F303F59C637A6813440433D7ED187AB7EE85
:205CE000007A77EE877AB0EE670A1846FEF76EFA7B68D3F8043B4FF4B67202FB03F303F5B7
:205D00009C637A681344191D7B68D3F8043B7A684FF4B67000FB03F3134403F2E4431B68F6
:205D200014331B68084698477B6803F52D63D3ED007AB7EE007A77EE877A7B6803F52D63D7
:205D4000C3ED007A7B6803F52D6393ED007A7B6803F6CC23D3ED007AB4EEE77AF1EE10FAC3
:205D600040F3AA827B68D3F8043B4FF4B67202FB03F303F59C637A6813440433B7EE000A63
:205D80001846FEF723FA7B68002283F8EA2A7B68D3F8043B4FF4B67202FB03F303F59C63BD
:205DA0007A681344181D7B68D3F8043B7A684FF4B67101FB03F3134403F2E4431B688C3395
:205DC0001B68002198477B68D3F8043B4FF4B67202FB03F303F59C637A6813441C1D7B68A9
:205DE000D3F8043B4FF4B67202FB03F303F59C637A68134404331846FEF75EFD034619467E
:205E00007B68D3F8F4329BB20A3B9BB25B4A01925A4A00926422204602F036FA7B68D3F8A5
:205E2000043B742202FB03F303F544737A681344181D7B68D3F8043B7A68742101FB03F327
:205E4000134403F545731B688C331B68002198477B68D3F8043B742202FB03F303F5447351
:205E60007A6813441C1D7B68D3F8043B742202FB03F303F544737A68134404331846FEF7C8
:205E80001BFD034619467B68D3F8F4329BB20A3B9BB23A4A0192394A00924FF487722046C1
:205EA00002F05EFA7B6803F1E8027B68D3F8FC321BB219461046FCF787F87B68E8330021E8
:205EC0001846FDF799FC7B6803F1E8007B68D3F800331AB27B68D3F8F4329BB20A3B9BB2BC
:205EE0002649019125490091002102F093FA7B6893F8023B022B43D0022B5EDC002B02D0B3
:205F0000012B1DD059E07B6803F5E07407F1400303211846FCF7CDFDB7F84010204615F01C
:205F200053FD7B6803F5BC7407F1440304211846FCF7BFFDB7F84410204615F045FD3DE0C8
:205F40007B6803F5E07407F1480305211846FCF7B0FDB7F84810204615F036FD7B6803F52B
:205F6000BC7407F14C0306211846FCF7A2FDB7F84C10204615F028FD20E000BF7DE10108D2
:205F80007B6803F5E07407F1500307211846FCF790FDB7F85010204615F016FD7B6803F519
:205FA000BC7407F1540308211846FCF782FDB7F85410204615F008FD00E000BF7B6803F56C
:205FC000987300211846FCF7D6FD7B6803F5E07300211846FCF7CFFD7B6803F5BC730021DA
:205FE0001846FCF7C8FD7B6803F5027300211846FCF744FD7B6803F5027301211846FCF7C5
:020000040800F2
:2060000006FC7B6803F598707B68D3F8F4329BB20A3B9AB2B14BFF2102F0E5F87B6803F523
:20602000E0707B68D3F8F4329BB20A3B9AB2AB4BFF2102F0D8F87B6803F5BC707B68D3F8D1
:20604000F4329BB20A3B9AB2A44BFF2102F0CBF87B6803F502707B68D3F8F4329BB20A3BC5
:206060009AB29E4BFF2102F027FA7B68D3F8F432A3F10A027B68C3F8EC2A7B6803F6D823B9
:206080004FF000021A607B6803F6D4234FF07E521A607B6803F6CC23914A1A607B6803F5EE
:2060A0002D634FF000021A607B68012283F8EB2A7B6803F5147301211846FCF798FBFBE0BC
:2060C0007B6893F8E93A002B00F0F6807B68D3F8F03A5A1C7B68C3F8F02A07F1300000234D
:2060E0000093642364220021FEF72CFB07F1240000230093642364220121FEF723FB07F1B7
:206100001800002300938823F0220021FEF71AFB07F10C00002300938823F0220121FEF73B
:2061200011FB7B6893F8013B002B2DD07B68D3F8F02A7B68D3F8F4329A4225DC7B68D3F85A
:20614000F03A012B09D17B681B6818331B6807F118021146786898479AE07B68D3F8F03A61
:20616000022B09D17B681B6818331B6807F10C021146786898478BE07B68D3F8F03A5A1E0D
:206180007B68C3F8F02A83E07B68D3F8F02A7B68D3F8F4329A4209D17B681B6818331B685E
:2061A00007F1300211467868984771E07B68D3F8F02A7B68D3F8F43201339A4209D17B68E5
:2061C0001B6818331B6807F124021146786898475EE07B68D3F8F02A7B68D3F8F4325B0005
:2061E0009A4209D17B681B6818331B6807F118021146786898474BE07B68D3F8F02A7B68B7
:20620000D3F8F4325B0001339A4209D17B681B6818331B6807F10C0211467868984737E0E1
:206220007B68D3F8F01A7B68D3F8F42213469B001344994209D17B681B6818331B6807F1B6
:20624000180211467868984722E07B68D3F8F01A7B68D3F8F42213469B0013440133994236
:2062600009D17B681B6818331B6807F10C021146786898470CE07B68D3F8F02A7B68D3F892
:20628000F432DB009A4203DB7B680022C3F8F02A07F10C031846FEF77DFA07F11803184627
:2062A000FEF778FA07F124031846FEF773FA07F130031846FEF76EFA7B6893F8EB3A002BF4
:2062C00074D07B68D3F8EC3A002B0BDD7B68D3F8EC3A5A1E7B68C3F8EC2A67E07DE10108E5
:2062E000000020417B6803F51473184617F097FA7B6803F52D63D3ED007A7B6803F6D82369
:2063000093ED007A7B6803F6D423D3ED006A7B6803F6CC2393ED006AF0EE461AB0EE661A75
:20632000F0EE470AB0EE670A786801F0D3FA87ED160A7B6803F5147397ED160A184614F085
:206340002EFF7B6803F52D63D3ED007AB7EE007A77EE877A7B6803F52D63C3ED007A7B686E
:2063600003F52D6393ED007A7B6803F6CC23D3ED007AB4EEE77AF1EE10FA11DD7B680022B7
:2063800083F8EB2AD7ED167AF5EE407AF1EE10FA06D17B6803F5147300211846FCF727FAC7
:2063A0007B6803F51473184617F039FA00BF6C37BD4690BDB0B586B002AF78607B6893F89F
:2063C000E83A002B40F0EC817B68012283F8012B7B6803F5027301211846FCF718FA7B686E
:2063E000983300211846FDF74DFA7B6803F198047B6898331846FEF75FFA034618467E4BDB
:206400001B881AB27B68D3F8F4329BB27B4901917A4900910146204602F08FF80023FB609E
:20642000BAE17A68FB6803F2AE239B001344D3ED007A9FED737AF4EEC77AF1EE10FA0EDC1B
:206440007A68FB6803F2AE239B001344D3ED007AB5EE007AF4EEC77AF1EE10FA7ED5FB6826
:206460004FF4B67202FB03F303F59C637A681344181D7A68FB684FF4B67101FB03F3134461
:2064800003F2E4431B688C331B6800219847FB684FF4B67202FB03F303F59C637A6813442A
:2064A0001C1D584B1B881DB2FB684FF4B67202FB03F303F59C637A68134404331846FEF713
:2064C00008FA034619467B68D3F8F4329BB24E4A01924A4A00920A462946204601F0D4FEB8
:2064E000FB68742202FB03F303F544737A681344181D7A68FB68742101FB03F3134403F578
:2065000045731B688C331B6800219847FB68742202FB03F303F544737A6813441C1D394B6D
:206520001B881DB2FB68742202FB03F303F544737A68134404331846FEF7CBF9034619461F
:206540007B68D3F8F4329BB22F4A01922B4A00920A462946204601F003FF1AE17A68FB68AF
:2065600003F2AE239B001344D3ED007A9FED277AF4EEC77AF1EE10FA50DD7A68FB6803F289
:20658000AE239B001344D3ED007A9FED217AF4EEC77AF1EE10FA41D57B6803F52D634FF00B
:2065A00000021A607B68D3F8F43207EE903AF8EEE77AF0EE006A87EEA67AB0EE470A1BF0AE
:2065C0006FFFF0EE407A7B6803F6CC23C3ED007A7B68012283F8EA2A7B68FA68C3F8042BFC
:2065E0007B6803F598707B68D3F8F0329AB2034B002101F0F8FDCCE0C6AC00247DE101089E
:20660000DB0FC140C4AC0024CDE10108DB0FA93FDB0FE93FDB0F3940DB0F59407A68FB6835
:2066200003F2AE239B001344D3ED007A1FED077AF4EEC77AF1EE10FA40F3AB807A68FB682C
:2066400003F2AE239B001344D3ED007A1FED0E7AF4EEC77AF1EE10FA40F19B80FB684FF4B6
:20666000B67202FB03F303F59C637A681344181D7A68FB684FF4B67101FB03F3134403F2AD
:20668000E4431B688C331B6800219847FB684FF4B67202FB03F303F59C637A6813441C1DE4
:2066A000FB684FF4B67202FB03F303F59C637A68134404331846FEF719F903469BB25B421A
:2066C0009BB21DB2FB684FF4B67202FB03F303F59C637A68134404331846FEF7FAF80346E8
:2066E00019467B68D3F8F4329BB22F4A01922F4A00920A462946204601F0C6FDFB68742231
:2067000002FB03F303F544737A681344181D7A68FB68742101FB03F3134403F545731B6813
:206720008C331B6800219847FB68742202FB03F303F544737A6813441C1DFB68742202FB14
:2067400003F303F544737A68134404331846FEF7CDF803469BB25B429BB21DB2FB687422C4
:2067600002FB03F303F544737A68134404331846FEF7AFF8034619467B68D3F8F4329BB244
:20678000094A0192094A00920A462946204601F0E7FDFB680133FB60FB68032B7FF741AE4C
:2067A00000BF1037BD46B0BDCDE101087DE10108B0B52DED028B86B002AF78607B68D3F8CC
:2067C000043B4FF4B67202FB03F303F59C637A681344181D7B68D3F8043B7A684FF4B6717E
:2067E00001FB03F3134403F2E4431B688C331A687B68D3F8F432002B00DA01335B109BB2AB
:20680000143B9BB2194690477B68D3F8043B4FF4B67202FB03F303F59C637A6813441C1DF2
:206820007B68D3F8043B4FF4B67202FB03F303F59C637A68134404331846FEF73DF80346D5
:2068400018467B68D3F8983A1AB27B68D3F8F4329BB2B3490191B24900910146204601F0B5
:2068600013FD7B68D3F8043B742202FB03F303F544737A681344181D7B68D3F8043B7A68A6
:20688000742101FB03F3134403F545731B688C331A687B68D3F8F432002B00DA01335B102E
:2068A0009BB2143B9BB2194690477B68D3F8043B742202FB03F303F544737A6813441C1D22
:2068C0007B68D3F8043B742202FB03F303F544737A68134404331846FDF7EEFF034618463D
:2068E0007B68D3F8983A9BB2AA339BB21AB27B68D3F8F4329BB28A490191894900910146A5
:20690000204601F02DFD7B6803F198027B68D3F8F432002B00DA01335B109BB2194610460B
