:020000040800F2
:100003002029070008A50C0008B30C0008BB0C004E
:1000130008C30C0008CB0C0008000000000000001F
:10002300000000000000000000F1490108D30C00AB
:100033000800000000014C0108E10C00087D0700E6
:10004300087D0700087D0700087D0700087D07007D
:10005300087D0700087D0700087D0700087D07006D
:10006300087D0700087D0700087D0700087D07005D
:10007300087D0700087D0700087D0700087D07004D
:10008300087D0700087D0700087D0700087D07003D
:10009300087D0700087D0700087D0700087D07002D
:1000A300087D0700087D0700087D0700087D07001D
:1000B300087D0700087D0700087D0700087D07000D
:1000C300087D0700087D0700087D0700087D0700FD
:1000D300087D0700087D0700087D070008ED0C0078
:1000E300087D070008000000007D0700087D070069
:1000F300087D0700087D0700087D0700087D0700CD
:10010300087D0700087D0700087D0700087D0700BC
:10011300087D070008910C00087D0700087D070093
:10012300087D0700087D0700087D0700087D07009C
:10013300087D0700087D0700087D07000800000010
:10014300000000000000000000000000007D070028
:10015300087D0700087D0700087D0700087D07006C
:10016300087D0700087D0700087D0700087D07005C
:10017300087D0700087D0700087D0700087D07004C
:10018300087D0700087D0700087D0700087D07003C
:10019300087D0700087D0700087D070008250D007E
:1001A300087D070008110D000800000000FD0C0089
:1001B300087D0700087D0700087D0700087D07000C
:1001C300087D070008000000000000000000000098
:1001D30000000000007D0700080000000000000090
:1001E300000000000000000000000000000000000C
:1001F30000000000007D0700087D0700087D070060
:10020300087D070008000000007D0700087D070047
:10021300087D0700087D0700087D0700087D0700AB
:1002230008000000007D070008000000007D0700B3
:10023300087D070008000000007D0700087D070017
:10024300087D0700087D0700087D0700087D07007B
:10025300087D0700087D0700087D0700087D07006B
:10026300087D0700087D0700087D0700087D07005B
:10027300087D0700087D070008000000007D0700D7
:10028300087D0700087D0700087D070008000000BF
:10029300007D0700087D0700087D0700087D070033
:1002A300087D0700087D0700087D0700087D07001B
:1002B300087D0700087D0700087D0700087D07000B
:1002C300087D0700087D0700080000000010B50541
:1002D3004C237833B9044B13B10448AFF3008001C6
:1002E30023237010BD300F002400000000243802C7
:1002F3000808B5034B1BB103490348AFF30080085B
:10030300BD00000000340F00242438020801F0FF70
:1003130001102A2BDB10F0070F08D010F8013B0166
:100323003A8B422DD010F0070F42B3F6D1F0B4410F
:10033300EA012141EA014122F007047FF0000700AE
:1003430023F0E80256083C85EA010586EA010685A2
:10035300FA47F5A3FA87F586FA47F6A5FA87F68EE4
:10036300B9EED1F0BC01F0FF0102F0070232B11087
:10037300F8013B013A83EA010313B1F8D10020707D
:100383004701387047002D06BF3546033807381537
:10039300F0010F07D1013015F4807F02BF01301542
:1003A300F4C03F0130F0BC0138704700BF81F0005A
:1003B3004102E000BF83F0004330B54FEA41044FF0
:1003C300EA430594EA050F08BF90EA020F1FBF54E2
:1003D300EA000C55EA020C7FEA645C7FEA655C0084
:1003E300F0E2804FEA5454D4EB5555B8BF6D420C3C
:1003F300DD2C4480EA020281EA030382EA000083DF
:10040300EA010180EA020281EA0303362D88BF3044
:10041300BD11F0004F4FEA01314FF4801C4CEA113B
:100423003102D0404261EB410113F0004F4FEA0328
:10043300334CEA133302D0524263EB430394EA058D
:100443000F00F0A780A4F10104D5F1200E0DDB020B
:10045300FA0EFC22FA05F2801841F1000103FA0EAC
:10046300F2801843FA05F359410EE0A5F120050E79
:10047300F1200E012A03FA0EFC28BF4CF0020C43B4
:10048300FA05F3C01851EBE37101F0004507D54FAE
:10049300F0000EDCF1000C7EEB00006EEB0101B10D
:1004A300F5801F1BD3B1F5001F0CD349085FEA3059
:1004B300004FEA3C0C04F101044FEA445212F58068
:1004C3000F80F09A80BCF1004F08BF5FEA500C50D8
:1004D300F1000041EB045141EA050130BD5FEA4CF4
:1004E3000C404141EB0101013C28BFB1F5801FE9FC
:1004F300D291F0000F04BF01460020B1FA81F30846
:10050300BF2033A3F10B03B3F120020CDA0C320842
:10051300DD02F1140CC2F10C0201FA0CF021FA0213
:10052300F10CE002F11402D8BFC2F1200C01FA026F
:10053300F120FA0CFCDCBF41EA0C019040E41AA262
:10054300BF01EB0451294330BD6FEA04041F3C1C77
:10055300DA0C340EDC04F11404C4F1200220FA0492
:10056300F001FA02F340EA030021FA04F345EA0337
:100573000130BDC4F10C04C4F1200220FA02F001E1
:10058300FA04F340EA0300294630BD21FA04F029B6
:100593004630BD94F0000F83F4801306BF81F480CE
:1005A300110134013D4EE77FEA645C18BF7FEA65C1
:1005B3005C29D094EA050F08BF90EA020F05D054D6
:1005C300EA000C04BF1946104630BD91EA030F1E22
:1005D300BF0021002030BD5FEA545C05D1400049D3
:1005E3004128BF41F0004130BD14F580043CBF01F8
:1005F300F5801130BD01F0004545F0FE4141F47036
:10060300014FF0000030BD7FEA645C1ABF19461049
:10061300467FEA655C1CBF0B46024650EA0134067E
:10062300BF52EA033591EA030F41F4002130BD00C4
:10063300BF90F0000F04BF0021704730B54FF48026
:100643006404F132044FF000054FF0000150E7005D
:10065300BF90F0000F04BF0021704730B54FF48006
:100663006404F1320410F0004548BF40424FF000EB
:10067300013EE700BF42004FEAE2014FEA31014F7A
:10068300EA02701FBF12F07F4393F07F4F81F06047
:1006930051704732F07F4208BF704793F07F4F0499
:1006A300BF41F40021704730B54FF4607401F0008E
:1006B3004521F000411CE700BF50EA010208BF706A
:1006C3004730B54FF000050AE050EA010208BF7059
:1006D3004730B511F0004502D5404261EB41014F6F
:1006E300F4806404F132045FEA915C3FF4D8AE4FC6
:1006F300F003025FEADC0C18BF03325FEADC0C187C
:10070300BF033202EBDC02C2F1200300FA03FC2038
:10071300FA02F001FA03FE40EA0E0021FA02F11494
:1007230044BDE600BFDFF838D00CF060FC002103C5
:10073300E00C4B5B58435004310B480C4B42189A66
:1007430042F6D30B4A02E0002342F8043B094B9ADA
:1007530042F9D30CF0F3FB22F0F5FA00F0EDF97057
:100763004700000220D47502080000002420010085
:1007730024300F002458AF0024FEE780B584B00076
:10078300AF0CF012FE01233B7000237B601F233B61
:10079300720023FB720023FB730023BB7301237BD3
:1007A3007300237B700023BB7287237B7201233B7F
:1007B300733B4618460CF030FE01233B704FF0109C
:1007C300537B6012233B720323FB720023FB7301F1
:1007D30023BB7300237B7301237B700023BB720055
:1007E300237B7201233B733B4618460CF015FE0135
:1007F300233B704FF0E0437B601C233B720023FBE1
:10080300720023FB730023BB7300237B7302237BE0
:10081300700023BB7200237B7201233B733B46189A
:10082300460CF0FAFD01233B704FF0E0437B60166A
:10083300233B720323FB720123FB730123BB73006E
:10084300237B7303237B700023BB7200237B720122
:10085300233B733B4618460CF0DFFD01233B704FEF
:10086300F010437B601C233B720023FB720023FBCD
:10087300730023BB7300237B7304237B700023BBB0
:100883007200237B7201233B733B4618460CF0C472
:10089300FD01233B704FF010437B6019233B720330
:1008A30023FB720023FB730123BB7300237B7305BC
:1008B300237B700023BB7200237B7200233B733BBB
:1008C3004618460CF0A9FD04200CF086FD00BF106D
:1008D30037BD4680BD80B483B000AF786000231875
:1008E300460C37BD465DF8047B7047000080B58831
:1008F300B000AF786039607B68274A1A6078680F68
:10090300F065FF7B6804225A607B6800229A607B53
:10091300684FF08062DA603B681A687B681A617B13
:100923006804225A617B6800229A617B680022DA9C
:10093300617B6800221A627B6804225A623B689AD0
:10094300687B689A627B684FF08052DA627B68FA50
:1009530022DA637B6817221A6378680FF071FE034B
:1009630046FB77FB7F002B11D10323FB6006233B60
:100973006100237B610123BB6107F10C0341F28812
:10098300321946786810F023F90346FB77FB7F188A
:10099300462037BD4680BD00BF00A0005280B5820F
:1009A300B000AF786039607B681E4A1A607B6804C8
:1009B300225A607B6800229A603B681A687B681A37
:1009C300617B6802225A617B6800229A617B68001E
:1009D30022DA617B6800221A627B6804225A623B36
:1009E300689A687B689A627B6800221A633B68DBBB
:1009F30068012B08D17B684FF08072DA607B684F07
:100A0300F08052DA6205E07B680022DA607B6800DE
:100A130022DA6278680FF014FE034618460837BDE1
:100A23004680BD00BF0050005280B586B000AF03C2
:100A330046FB7100237B61FB79002B1ED001233B16
:100A43007301237B7307F10C03194600200AF09806
:100A5300FC0346002B0FD100200AF07EFD03460065
:100A63002B09D1254B00221A6000F0F4F823481318
:100A7300F01EF901233CE000233AE001233B73011C
:100A8300237B7300200AF01AFD07F10C03194600BB
:100A9300200AF076FC78617B69002B01D0002327C4
:100AA300E000200AF059FD78617B69002B01D0003A
:100AB300231EE001233B7401237B740323BB7407D0
:100AC300F11003194600200AF047FE00200AF01235
:100AD300FF78617B69002B01D0002309E00121002D
:100AE3002009F0CAFE0346002B01D0002300E001D9
:100AF3002318461837BD4680BD10E000E04C0F00B8
:100B03002480B400AF034B1B681846BD465DF80450
:100B13007B704700BFD0AC002480B582B000AF78B3
:100B230060FFF7EEFF03461A680C3212681846900E
:100B33004700BF0837BD4680BD80B582B002AF17FE
:100B4300F0EDF817F031FA4FF4616109481BF0DA60
:100B5300F8002301930323009300234FF4805205ED
:100B630049054815F0C5F815F007FA00BFFDE70081
:100B7300BF20010024403802081D0B000880B590F7
:100B8300B000AF78600023BB6300237B630022794E
:100B93006836200CF0CEFB36200CF0E5FB284BD357
:100BA300F8E830274A43F01003C2F8E830244BD367
:100BB300F8E83003F01003FB60FB6807F11002074D
:100BC300F114031146184611F0D5FCBB6ABB63BB95
:100BD3006B002B03D111F0A2FCF86304E011F09E2B
:100BE300FC03465B00FB63FB6B164AA2FB03239BE0
:100BF3000C013B7B63144B154A1A60134B40F2E71D
:100C030032DA60114A7B6B53600F4B00221A610E7C
:100C13004B00229A600C4812F0F3FF0346002B0AA4
:100C2300D1094813F033F90346002B04D1084B00D4
:100C3300221A60002300E0012318464037BD468096
:100C4300BD0044025883DE1B434C0F0024001000F8
:100C530040981C002480B500AF064B1B68DA68057A
:100C63004B1B6822F00102DA6036200CF08AFB008D
:100C7300BF80BD00BF4C0F002480B582B000AF78A9
:100C8300600CF010FA00BF0837BD4680BD80B50088
:100C9300AF024813F081F900BF80BD00BF4C0F00C5
:100CA3002480B400AF00BFBD465DF8047B7047806D
:100CB300B400AF00BFFDE780B400AF00BFFDE78025
:100CC300B400AF00BFFDE780B400AF00BFFDE78015
:100CD300B400AF00BFBD465DF8047B704780B5002C
:100CE300AF13F00EFC00BF80BD80B500AF0020093C
:100CF300F035FE00BF80BD000080B500AF02480F95
:100D0300F097FD00BF80BD00BF7C1A002480B500B2
:100D1300AF02480CF0D2FD00BF80BD00BF78AB002E
:100D23002480B500AF02480FF01AF800BF80BD0061
:100D3300BFD0AA002480B400AF01231846BD465D8E
:100D4300F8047B704780B582B000AF7860396021CA
:100D5300F0F3FF034616221A604FF0FF33184608DC
:100D630037BD4680BD80B582B000AF78604FF0FFDD
:100D7300317868FFF7E7FF00BFFDE780B586B00075
:100D8300AFF860B9607A6000237B610AE0AFF300DB
:100D9300800146BB685A1CBA60CAB21A707B6901EB
:100DA300337B617A697B689A42F0DB7B681846186B
:100DB30037BD4680BD80B586B000AFF860B9607AB4
:100DC3006000237B6109E0BB685A1CBA601B78187A
:100DD30046AFF300807B6901337B617A697B689A54
:100DE30042F1DB7B6818461837BD4680BD80B4836B
:100DF300B000AF78604FF0FF3318460C37BD465D47
:100E0300F8047B704780B483B000AF786039603BEF
:100E1300684FF400525A60002318460C37BD465DF4
:100E2300F8047B704780B483B000AF786001231867
:100E3300460C37BD465DF8047B704780B485B0002F
:100E4300AFF860B9607A60002318461437BD465D79
:100E5300F8047B704780B586B000AF7860144A15FC
:100E63004BD31A7B617B693B61134B1B68002B02DD
:100E7300D1114B124A1A60104B1A687B6813443A1B
:100E8300699A4207D221F058FF03460C221A604F99
:100E9300F0FF3309E0084B1B68FB60074B1A687BC4
:100EA300681344054A1360FB6818461837BD46802B
:100EB300BD0000022000400000980F002400000045
:100EC3002080B483B000AF7860044A7B681A607BEB
:100ED3006818460C37BD465DF8047B704710410225
:100EE3000880B582B000AF78607868FFF7E9FF0447
:100EF30021786821F06BF87B6818460837BD468077
:100F0300BD80B582B000AF78600B467B807B8800E4
:100F13002B02D0012B05D009E003F006F803461B92
:100F23006805E003F001F803465B6800E00023185E
:100F3300460837BD4680BD000080B582B000AF785B
:100F430060054A7B681A607B681846FFF7B9FF7B28
:100F53006818460837BD4680BDFC40020880B5824C
:100F6300B000AF78607868FFF7E7FF042178682165
:100F7300F02DF87B6818460837BD4680BD80B483E2
:100F8300B000AF7860044A7B681A607B6818460C2F
:100F930037BD465DF8047B7047EC65020880B58277
:100FA300B000AF78607868FFF7E9FF102178682117
:100FB300F00DF87B6818460837BD4680BD90B587AD
:100FC300B000AF78600B467B8000233B610023FBBE
:100FD300737B681B6808331C6807F10F0307F11064
:100FE3000279887868A04778617B6918461C37BD09
:100FF3004690BD80B483B000AF78607B685B89188E
:10100300460C37BD465DF8047B704780B483B0005F
:10101300AF78607B689B8918460C37BD465DF80442
:101023007B704780B483B000AF78607B689B88187F
:10103300460C37BD465DF8047B704780B483B0002F
:10104300AF78607B689B887A68927913449BB21867
:10105300460C37BD465DF8047B704780B483B0000F
:10106300AF78607B68DB79C3F30603DBB218460C09
:1010730037BD465DF8047B704780B483B000AF781A
:10108300607B68DB79C3F3C013DBB218460C37BD52
:10109300465DF8047B704780B483B000AF78607B13
:1010A300681B6A18460C37BD465DF8047B70470021
:1010B3000080B582B000AF7860054A7B681A607B18
:1010C300681846FFF75BFF7B6818460837BD468004
:1010D300BDA866020880B582B000AF78607868FF6B
:1010E300F7E7FF1821786820F071FF7B681846083E
:1010F30037BD4680BD80B582B000AF7860054A7BBE
:10110300681A607B681846FFF7D3FF7B68184608A8
:1011130037BD4680BD2441020880B582B000AF7858
:10112300607868FFF7E7FF2421786820F04FFF7BA2
:101133006818460837BD4680BD80B582B000AF78D9
:1011430060786800F015F8084B1A68084B19687B3B
:10115300681B885B000B441B789B0013441B6818B7
:10116300460837BD4680BD00BF44AD00243CAD00FA
:101173002480B582B000AF78600C4B1B68002B0550
:10118300D10B4B0C4ADE210C4821F03AFB7B681A49
:10119300880A4B1B889A4205D3094B064ADF21066E
:1011A3004821F02EFB00BF0837BD4680BD3CAD0093
:1011B30024483802088C380208BC38020840AD00C5
:1011C300241839020880B483B000AF78607B685B71
:1011D3007B1BB21B021BB203F4E0631AB27B68DB16
:1011E3007A1BB213431BB29BB218460C37BD465D44
:1011F300F8047B704780B58CB008AFF860B9601114
:10120300461A460B46FB801346BB80F868B988FA3A
:10121300883B8F0693BB8E059397F82830049397EA
:10122300F82430039397F8203002933B7F01933BDC
:101233007E00930B46B9681CF0ADFB084AFB681AA5
:1012430060FB68FA6A9A61FB683A6BDA61FB68FAD9
:101253006B1A62FB6818461037BD4680BD244102F5
:101263000880B485B000AF786039607B689B69FB08
:10127300603B689B88DB0A9BB29B00FA6813441AA5
:10128300683B681B68134418461437BD465DF80471
:101293007B704780B586B000AFF8600B467A607B01
:1012A300817B68002B03D07B681B7B002B01D10063
:1012B3002323E07868FFF786FF0346BB82BB8AFBE4
:1012C3008213E0FB68DA69FB8A9B0013441B887A6C
:1012D300899A4207D1FB68DA69FB8A9B001344931E
:1012E300F902300AE0FB8A0133FB82FA8ABB8A796E
:1012F30068097B0B449A42E4DB002318461837BD88
:101303004680BD000080B500AF0148FFF7F3FE80C3
:10131300BD9C0F002480B58AB00AAF1E4B1B68BF6B
:10132300F35B8F03F00103002B0CBF01230023DBCE
:10133300B2002B2AD0174820F04BFE0346002B1493
:10134300BF01230023DBB2002B1FD000230993002E
:101353002308933F230793104B0693104B059300E9
:101363002304930023039300230293042301930094
:10137300230093182310220A490A48FFF73BFF0A68
:101383004821F05CFA034820F02FFE064B1846BDB7
:101393004680BD00BFC00F0024605E2D90704102E7
:1013A30008BC5E2D909C0F00240913000880B50033
:1013B300AF0148FFF79FFE80BDC40F002480B58AAC
:1013C300B00AAF1E4B1B68BFF35B8F03F001030032
:1013D3002B0CBF01230023DBB2002B2AD01748209C
:1013E300F0F7FD0346002B14BF01230023DBB200FB
:1013F3002B1FD000230993002308933F2307931047
:101403004B0693104B05930023049300230393008F
:101413002302930423019303230093122331220A0B
:10142300490A48FFF7E7FE0A4821F008FA03482073
:10143300F0DBFD064B1846BD4680BD00BFE80F003C
:1014430024645E2D90744102089C5F2D90C40F00AC
:1014530024B113000880B483B000AF786039603BD7
:101463006818460C37BD465DF8047B704780B4832B
:10147300B000AF7860396000BF0C37BD465DF8043B
:101483007B704780B483B000AF7860396000BF0CD5
:1014930037BD465DF8047B704780B483B000AF78F6
:1014A30060396000BF0C37BD465DF8047B70478030
:1014B300B483B000AF78600B46FB7000BF0C37BD40
:1014C300465DF8047B704780B483B000AF7860005A
:1014D300BF0C37BD465DF8047B704780B483B00012
:1014E300AF786000BF0C37BD465DF8047B704700E2
:1014F3000080B483B000AF7860044A7B681A607BD5
:101503006818460C37BD465DF8047B704768420295
:101513000880B582B000AF78607868FFF7E9FF0410
:1015230021786820F053FD7B6818460837BD468054
:10153300BD80B483B000AF7860074A7B681A607BD4
:101543006800225A607B6800221A727B6818460C76
:1015530037BD465DF8047B70474842020880B48378
:10156300B000AF7860044A7B681A607B6818460C49
:1015730037BD465DF8047B70474842020880B58258
:10158300B000AF78607868FFF7E9FF0C2178682036
:10159300F01DFD7B6818460837BD4680BD80B483C7
:1015A300B000AF786000BF0C37BD465DF8047B70B8
:1015B3004780B483B000AF786000BF0C37BD465D91
:1015C300F8047B704780B483B000AF786000BF0C31
:1015D30037BD465DF8047B704780B483B000AF78B5
:1015E3006039607B683A685A6000BF0C37BD465D5E
:1015F300F8047B704780B483B000AF78600B46FB80
:101603007000BF0C37BD465DF8047B704780B48320
:10161300B000AF7860044A7B681A607B6818460C98
:1016230037BD465DF8047B70473042020880B582BF
:10163300B000AF78607868FFF7E9FF04217868208D
:10164300F0C5FC7B6818460837BD4680BD80B5826F
:10165300B000AF7860054A7B681A607B681846FF64
:10166300F747FF7B6818460837BD4680BDC0640254
:101673000880B582B000AF78607868FFF7E7FF4F66
:10168300F49871786820F0A2FC7B6818460837BD8F
:101693004680BD000080B582B000AF78607B6818DB
:1016A300461BF07CFC094A7B681A607B680022C3F6
:1016B300F830217B680022C3F834217B68044A1385
:1016C300607B6818460837BD4680BD00BFF4410201
:1016D3000838AD002480B582B000AF7860054A7B3E
:1016E300681A607B681846FFF7B1FF7B68184608E5
:1016F30037BD4680BDF441020880B582B000AF78A3
:10170300607868FFF7E7FF4FF49C71786820F05E1C
:10171300FC7B6818460837BD4680BD80B582B000A3
:10172300AF7860786800F004F800BF0837BD4680E2
:10173300BD80B582B000AF78607B68D3F8343100E8
:101743002B0FD07B68D3F834217B68D3F834311B5B
:10175300680C331B68104698470346002B01D001E1
:101763002300E00023002B0ED07B68D3F834217BC9
:1017730068D3F834311B6808331B68104698477BDD
:10178300680022C3F8342100BF0837BD4680BD80FE
:10179300B584B000AFF860B9607A601BF095FB03C5
:1017A3004618461BF0DEFB7B681B68002B08D07BCA
:1017B300681A687B681B681B680C331B68104698A3
:1017C300477B681B68002B07D07B681A687B681B04
:1017D300681B681B6810469847FB681B68002B084A
:1017E300D0FB681A68FB681B681B6814331B6810FE
:1017F300469847BB681B68002B08D0BB681A68BBB8
:10180300681B681B6804331B6810469847FB681BFA
:1018130068002B07D0FB681A68FB681B681B681BF2
:101823006810469847BB681B68002B08D0BB681A32
:1018330068BB681B681B6808331B68104698470021
:10184300BF1037BD4680BD80B584B000AFF860B926
:10185300607A60FB681B680C331B68F8689847BBA9
:10186300681B681B68B86898477968F8681CF06A51
:10187300FC7B681B6810331B68786898471BF0244F
:10188300FB03461A68283212681846904700BF10B7
:1018930037BD4680BD80B483B000AF786039607BCC
:1018A300683A681A6000BF0C37BD465DF8047B7068
:1018B3004780B582B000AF7860054A7B681A607BC9
:1018C300681846FFF7A3FE7B6818460837BD4680B5
:1018D300BDDC41020880B582B000AF78607868FF54
:1018E300F7E7FF1021786820F071FB7B6818460842
:1018F30037BD4680BD80B582B000AF7860084A7BB3
:10190300681A607B6803F59C731846FFF7D1FF7B69
:10191300681846FFF7DFFE7B6818460837BD468028
:10192300BDA041020880B582B000AF78607868FF3F
:10193300F7E1FF4FF4A871786820F048FB7B681843
:10194300460837BD4680BD000080B582B000AF7841
:10195300607B681846FFF7ECFD034A7B681A607BDF
:101963006818460837BD4680BD8041020880B582AD
:10197300B000AF7860054A7B681A607B681846FF41
:10198300F7EDFD7B6818460837BD4680BD804102F0
:101993000880B582B000AF78607868FFF7E7FF0C86
:1019A30021786820F013FB7B6818460837BD468012
:1019B300BD80B483B000AF78607B6801221A7200E7
:1019C300BF0C37BD465DF8047B704780B483B0001D
:1019D300AF786039607B683A685A6000BF0C37BDE6
:1019E300465DF8047B7047000080B584B000AFF813
:1019F30060B9607A60FB681846FFF74CFE104AFB3B
:101A0300681A60FB6803F59C73184600F099F8FBAD
:101A1300687A68C3F84821FB68BA68C3F84C21FFA9
:101A2300F76FF803461A68083212680021184690C7
:101A330047002002F001FAFB6818461037BD4680C4
:101A4300BDA041020880B483B000AF786039607BE9
:101A53006818460C37BD465DF8047B704780B58235
:101A6300B000AF786039607B683A6811461846FF6A
:101A7300F7E9FF3B685A687B685A607B683A6808F5
:101A830033083292E8030083E803007B68184608B2
:101A930037BD4680BD90B589B000AF78607B6803E1
:101AA300F59C74104BBB610023FB6107F108000731
:101AB300F118030CCB796800F05FF807F1080319FC
:101AC300462046FFF7CBFF07F108031846FFF7F060
:101AD300FE7B6803F59C727B68C3F8342100BF2446
:101AE30037BD4690BDED1A000880B584B002AF78CB
:101AF300607B6803F598717B68D3F848311A467B9D
:101B030068D3F84C310093044B044800F055F800B7
:101B1300BF0837BD4680BD00BF34AD002430AD00E3
:101B23002480B483B000AF7860044A7B681A607B7A
:101B33006818460C37BD465DF8047B704730420297
:101B43000880B582B000AF78607B681846FFF7E87D
:101B5300FF084A7B681A607B6800225A607B680032
:101B6300229A607B680022DA607B6818460837BDDA
:101B73004680BD00BFDC41020880B584B000AFF8E9
:101B830060B960394681E80C00FB681846FFF7C866
:101B9300FF084AFB681A60FB68BA685A60FB68086A
:101BA300333A4692E8030083E80300FB68184610C3
:101BB30037BD4680BDDC41020890B589B000AFF85F
:101BC30060B9607A603B607B689A687B689B681B3E
:101BD3006820331B6810469847034640F60B329340
:101BE3004205D8454B454AC221454820F009FE7BB2
:101BF300685A687B685B681B6820331B68104698CB
:101C03004703460F2B05D83F4B3C4AC3213C482092
:101C1300F0F7FD7B68DA687B68DB681B6820331BA1
:101C2300681046984703460B2B05D8374B334AC4F5
:101C330021334820F0E5FD3A68B968F868FFF7A753
:101C4300FD7B68DB680021184600F060F803461945
:101C5300460C20FFF7FFFB04462046FFF775FEFC0A
:101C6300617B689B680021184600F063F8034619FE
:101C73004640F60C30FFF7EEFB0446204602F032F6
:101C8300FFBC617B685B680021184600F065F803C0
:101C93004619461020FFF7DEFB0446B969204602C9
:101CA300F051FC7C613B68FA691A60BB687A691A77
:101CB30060FB68BA691A607B69002B02D07B6904F8
:101CC3003300E000231946386BFFF7E4FD7B69041A
:101CD30033396B1846FFF779FEBB697969184600FB
:101CE300F04EF8FA697969B869FFF7ADFD7B6918B9
:101CF300462437BD4690BD00BF6C390208FC39024B
:101D030008C83A0208243B0208C83B020880B5828F
:101D1300B000AF78600B467B807B681B6824331B65
:101D2300687A88114678689847034618460837BD8D
:101D33004680BD80B582B000AF78600B467B807B68
:101D4300681B6824331B687A8811467868984703B0
:101D53004618460837BD4680BD80B582B000AF78CF
:101D6300600B467B807B681B6824331B687A881171
:101D73004678689847034618460837BD4680BD80B5
:101D8300B483B000AF786039607B683A68DA630087
:101D9300BF0C37BD465DF8047B704780B582B00049
:101DA300AF78607B685B687A68D268521099187B59
:101DB30068DB6803F00103002B02D17B689B680A90
:101DC300E07B685B687A68D268521013441B687AB8
:101DD30068926813441B680846984700BF0837BDDC
:101DE3004680BD80B483B000AF78607B685B6800D9
:101DF3002B10D07B689B68002B07D17B68DB6803C3
:101E0300F00103002B01D1012300E00023012B018A
:101E1300D0012300E0002318460C37BD465DF804CB
:101E23007B704780B483B000AF78607B6800221A70
:101E3300807B6800225A807B6800229A807B68003E
:101E430022DA807B6818460C37BD465DF8047B7048
:101E53004780B485B000AFF860084611461A4603C0
:101E6300467B810B463B811346FB80FB687A891ACC
:101E730080FB683A895A80FB68FA889A80FB683A43
:101E83008BDA80FB6818461437BD465DF8047B7017
:101E93004780B483B000AF78600B467B807B687A61
:101EA300881A807B6818460C37BD465DF8047B7042
:101EB3004780B584B002AF7860134A7B681A607BB1
:101EC30068181D00230093002300220021FFF7C0A0
:101ED300FF7B680C331846FFF7A4FF7B6800225A88
:101EE300617B6800229A617B680022DA617B68006B
:101EF3002283F824207B68012283F825207B68183D
:101F0300460837BD4680BD00BF3C66020880B483E7
:101F1300B000AF7860044A7B681A607B6818460C8F
:101F230037BD465DF8047B70473C66020880B58286
:101F3300B000AF78607868FFF7E9FF282178682060
:101F4300F045F87B6818460837BD4680BD80B584E8
:101F5300B000AFF860084611461A4603467B810B72
:101F6300463B811346FB80FB681B6834331B68B711
:101F7300F90820B7F90A10F8689847FB681B683816
:101F8300331B68B7F906201146F8689847FB681BAE
:101F9300683C331B68B7F918201146F86898470066
:101FA300BF1037BD4680BD80B483B000AF78600BEF
:101FB300467B807B687A889A8000BF0C37BD465D7C
:101FC300F8047B704780B483B000AF78600B467B26
:101FD300807B687A88DA8000BF0C37BD465DF804E1
:101FE3007B704780B582B000AF78600B467B80136F
:101FF300463B807B681B682C331B68B7F9022011B2
:1020030046786898477B681B6830331B68B7F900CC
:102013002011467868984700BF0837BD4680BD80C9
:10202300B483B000AF78600B467B807B687A881AF4
:102033008100BF0C37BD465DF8047B704780B483D5
:10204300B000AF78600B467B807B687A885A81004A
:10205300BF0C37BD465DF8047B704780B483B00086
:10206300AF786000BF0C37BD465DF8047B704780D6
:10207300B483B000AF7860396000BF0C37BD465DF4
:10208300F8047B704780B483B000AF786039600098
:10209300BF0C37BD465DF8047B704780B483B00046
:1020A300AF7860396000BF0C37BD465DF8047B70C4
:1020B3004780B483B000AF786000BF0C37BD465D86
:1020C300F8047B704780B582B000AF78600B467B25
:1020D3008013463B807B681B6854331B6879887A7E
:1020E30068B2F9042092B28A1A92B210B239887A8D
:1020F30068B2F9062092B28A1A92B212B2014678F5
:1021030068984700BF0837BD4680BD000080B58290
:10211300B000AF78607B681846FFF7CAFE054A7BBC
:10212300681A607B6800229A627B6818460837BD8C
:102133004680BD00BF105C020880B582B000AF7856
:1021430060054A7B681A607B681846FFF7DFFE7BF1
:102153006818460837BD4680BD105C020880B5820A
:10216300B000AF78607868FFF7E7FF2C2178681F2D
:10217300F02DFF7B6818460837BD4680BD80B483C9
:10218300B000AF7860122318460C37BD465DF804E3
:102193007B704780B483B000AF78600B46FB707BE5
:1021A30068FA7883F8262000BF0C37BD465DF80433
:1021B3007B704780B483B000AF78600B46FB707BC5
:1021C30068FA7883F82A2000BF0C37BD465DF8040F
:1021D3007B704780B584B000AFF86087ED020AC713
:1021E300ED010A87ED001AFB68BA685A64FB687A46
:1021F300689A64FB683A68DA64F86818F067FE0066
:10220300BF1037BD4680BD80B584B000AFF860878E
:10221300ED020AC7ED010AFB68BA681A65FB687A22
:10222300685A65F86818F052FE00BF1037BD468043
:10223300BD80B582B000AF786087ED000AD7ED00AE
:102243007AB7EE007AF4EEC77AF1EE10FA01DD3BCD
:102253006801E04FF07E537A689365786818F0362A
:10226300FE00BF0837BD4680BD80B584B000AFF81F
:102273006087ED020AC7ED010AFB68BA68DA62FB00
:10228300687A681A63F86818F021FE00BF1037BD3A
:102293004680BD000080B582B000AF78600A4A7BFB
:1022A300681A607B68BC33184618F0BFFD7B682C46
:1022B30033184618F0BAFD7B681846FFF73DFF7BDD
:1022C3006818460837BD4680BD9042020880B58233
:1022D300B000AF78607868FFF7DDFF4FF4A6717840
:1022E300681FF074FE7B6818460837BD4680BD0042
:1022F3000090B585B000AF78607B681846FFF7069D
:10230300FF754A7B681A607B682C33184618F09C6B
:10231300FD7B68BC33184618F097FD7B68C821180D
:1023230046FFF77DFE7B68C8211846FFF787FE7BD3
:10233300682C33002200211846FFF753FE7B680305
:10234300F12C0407F1080303211846FFF7A1FD0749
:10235300F108031946204618F005FF7B682C33C8A3
:10236300211846FFF75CFE7B682C33C8211846FF13
:10237300F765FE7B682C33DFED590A9FED580A1889
:1023830046FFF772FF7B682C33B7EE000A18461836
:10239300F004FF7B682C339FED520A1846FFF74881
:1023A300FF7B682C339FED4E1ADFED4E0A9FED4DF8
:1023B3000A1846FFF70EFF7B682C33DFED4A0A9FAE
:1023C300ED490A1846FFF71FFF7B682C339FED4347
:1023D3001ADFED420A9FED410A184618F09EFF7B73
:1023E300682C3301211846FFF7D4FE7B68BC330009
:1023F3002200211846FFF7F5FD7B6803F1BC0407B3
:10240300F10C030B211846FFF743FD07F10C0319E9
:1024130046204618F0A7FE7B68BC33C8211846FF48
:10242300F7FEFD7B68BC33C8211846FFF707FE7B28
:1024330068BC33DFED2D0A9FED2C0A1846FFF71415
:10244300FF7B68BC33B0EE000A184618F0A6FE7B8B
:1024530068BC339FED230A1846FFF7EAFE7B68BC8E
:10246300339FED1F1ADFED1F0A9FED1E0A1846FF6B
:10247300F7B0FE7B68BC33DFED1B0A9FED1A0A1829
:1024830046FFF7C1FE7B68BC339FED141ADFED13E3
:102493000A9FED120A184618F040FF7B68BC33010F
:1024A300211846FFF776FE7B68BC3300211846FFF0
:1024B300F780FE7A687B682C331946104617F00EB6
:1024C300FC7A687B68BC331946104617F007FC7B1F
:1024D3006818461437BD4690BD90420208000000BC
:1024E3000000007A440000C8420000484280B483E0
:1024F300B000AF786000BF0C37BD465DF8047B7059
:102503004780B483B000AF78607B6893F8253018B8
:10251300460C37BD465DF8047B704780B483B0003A
:10252300AF78607B6893F8243018460C37BD465D5E
:10253300F8047B704780B483B000AF78607B684F4A
:10254300F6FF729A817B684FF6FF721A847B684F9D
:10255300F6FF725A8400BF0C37BD465DF8047B70EA
:102563004780B584B000AFF860B9607A60F868FF5F
:10257300F7E1FF7B681A68FB68DA617B68FA681A1F
:102583006000BF1037BD4680BD80B582B000AF7814
:10259300607B681846FFF78CFC034A7B681A607BF4
:1025A3006818460837BD4680BDB843020880B58227
:1025B300B000AF7860054A7B681A607B681846FFF5
:1025C300F7A5FC7B6818460837BD4680BDB84302B3
:1025D3000880B582B000AF78607868FFF7E7FF281E
:1025E3002178681FF0F3FC7B6818460837BD4680E6
:1025F300BD80B584B000AFF8607B600B467B811370
:10260300463B81FB681846FFF77BFF0346002B0818
:10261300D0FB681846FFF781FF0346002B01D0016A
:102623002300E00023002B02D0FA687B681A6000C5
:10263300BF1037BD4680BD80B483B000AF78600162
:102643002318460C37BD465DF8047B704780B5827E
:10265300B000AF786039607B681846FFF795FF0BD1
:102663004A7B681A607B6826334FF6FF711846FF72
:10267300F70FFC7B68FF2283F828203968786819F4
:10268300F0C9FA7B6818460837BD4680BD5064021E
:102693000880B582B000AF7860054A7B681A607B1A
:1026A300681846FFF783FF7B6818460837BD4680E6
:1026B300BD5064020880B582B000AF78607868FFCF
:1026C300F7E7FF2C2178681FF081FC7B6818460828
:1026D30037BD4680BD80B582B000AF7860084A7BC5
:1026E300681A607B682C331846FFF7D2FF7B6818A3
:1026F30046FFF722FD7B6818460837BD4680BD00BC
:10270300BF2443020880B582B000AF78607868FFC9
:10271300F7E1FF582178681FF059FC7B68184608D9
:1027230037BD4680BD90B585B000AF78607B681833
:1027330046FFF7ECFC1F4A7B681A607B6803F12CA9
:102743000407F108034FF6FF711846FFF7A1FB07D3
:10275300F1080319462046FFF779FF7B68A021188B
:1027630046FFF75DFC7B6828211846FFF767FC7B73
:10277300682C33002200211846FFF733FC7B6803E3
:10278300F12C0407F10C0307211846FFF781FB071F
:10279300F10C031946204619F03DFA7A687B682C40
:1027A300331946104617F09AFA7B6818461437BD5A
:1027B3004690BD00BF2443020880B483B000AF78C5
:1027C3006000BF0C37BD465DF8047B704780B4835F
:1027D300B000AF786039607B683A681A607B68182C
:1027E300460C37BD465DF8047B704780B483B00068
:1027F300AF78600B46FB707B68FA7883F82520007E
:10280300BF0C37BD465DF8047B704780B483B000CE
:10281300AF78600B46FB707B68FA7883F82420005E
:10282300BF0C37BD465DF8047B7047000080B400E1
:10283300AF0B4B1B6893F87630002B08D0084B1B6B
:1028430068DB6C002B03D0064B1B68DB6C02E004D7
:102853004B1B689B681846BD465DF8047B704700B8
:10286300BFD0AC002480B582B000AF7860064A7B4D
:10287300681A607B6804331846FFF75EFC7B6818B0
:10288300460837BD4680BD00BF2467020880B58275
:10289300B000AF78607868FFF7E5FF3C2178681FE8
:1028A300F095FB7B6818460837BD4680BD80B4832E
:1028B300B000AF786000BF0C37BD465DF8047B7095
:1028C3004780B483B000AF786000BF0C37BD465D6E
:1028D300F8047B704780B483B000AF786000BF0C0E
:1028E30037BD465DF8047B704780B483B000AF7892
:1028F3006000BF0C37BD465DF8047B704780B4832E
:10290300B000AF78600B46FB7000BF0C37BD465D6F
:10291300F8047B704780B582B000AF786039607B84
:102923006804333968184617F0D9F900BF0837BD72
:102933004680BD000080B582B000AF78607B681828
:1029430046FFF722FE094A7B681A607B6800229AD9
:10295300627B68002283F82C207B6801211846FFE4
:10296300F754FF7B6818460837BD4680BDB861023F
:102973000880B483B000AF786039607B683A689AA6
:102983006200BF0C37BD465DF8047B704780B4839B
:10299300B000AF78607B6893F82C3018460C37BDD5
:1029A300465DF8047B7047000080B582B000AF78C5
:1029B30060054A7B681A607B681846FFF7F7FD7B62
:1029C3006818460837BD4680BDB861020880B582E5
:1029D300B000AF78607868FFF7E7FF302178681FB1
:1029E300F0F5FA7B6818460837BD4680BD80B5828E
:1029F300B000AF78607B681846FFF79CFF0C4A7BFA
:102A0300681A607B682E334FF6FF711846FFF74054
:102A1300FA7B6830334FF6FF711846FFF739FA7BBC
:102A230068FF2283F832207B6818460837BD46804A
:102A3300BDA863020880B582B000AF7860054A7B09
:102A4300681A607B681846FFF7AFFF7B6818460873
:102A530037BD4680BDA863020880B582B000AF7859
:102A6300607868FFF7E7FF342178681FF0AFFA7BDF
:102A73006818460837BD4680BD80B483B000AF7880
:102A8300600B46FB707B68FA7883F8322000BF0C3A
:102A930037BD465DF8047B704780B483B000AF78E0
:102AA30060052318460C37BD465DF8047B704780EC
:102AB300B483B000AF78600B467B807B687A881A5A
:102AC300807B6818460C37BD465DF8047B70470071
:102AD3000080B582B000AF78607B681846FFF7547A
:102AE300FD134A7B681A607B6826334FF6FF711823
:102AF30046FFF7DDFF7B68283300211846FFF766A2
:102B0300FE7B6800229A857B68FF2283F82E207B58
:102B130068002283F82F207B68002283F830207B13
:102B230068002283F831207B6818460837BD468049
:102B3300BD2C63020880B584B002AF7860396000B1
:102B43002300930023002200217868FFF781F9789E
:102B5300680837BD4680BD80B483B000AF78603964
:102B6300607B683A689A6200BF0C37BD465DF80423
:102B73007B704780B483B000AF78600B46FB707BFB
:102B830068FA7883F82E2000BF0C37BD465DF80441
:102B93007B7047F0B585B000AF78600B467B807ED5
:102BA300687B681B6830331C687D88786800F04553
:102BB300F80346BB8107F10C031846FEF7BDFA0381
:102BC300461A682C321268184690470346EB1A9B44
:102BD300B21BB219463046A04700BF1437BD46F0BA
:102BE300BD80B582B000AF78600B467B8013463B57
:102BF300807A687B681B682C331B68B7F902101056
:102C03004698477B681B6864331B68B7F90020113B
:102C1300467868984700BF0837BD4680BD80B483B7
:102C2300B000AF78600B467B807B687A889A85001A
:102C3300BF0C37BD465DF8047B704780B483B0009A
:102C4300AF78607B68DB8C18460C37BD465DF804B3
:102C53007B704780B483B000AF78600D2318460CB7
:102C630037BD465DF8047B704780B582B000AF780E
:102C730060054A7B681A607B681846FFF7F3FD7BA3
:102C83006818460837BD4680BDAC46020880B58249
:102C9300B000AF78607868FFF7E7FF402178681FDE
:102CA300F095F97B6818460837BD4680BD80B5822C
:102CB300B000AF7860054A7B681A607B68184600ED
:102CC300F0D3FB7B6818460837BD4680BD604402DD
:102CD3000880B582B000AF78607868FFF7E7FF102F
:102CE3002178681FF073F97B6818460837BD468062
:102CF300BD80B582B000AF7860214A7B681A607BE3
:102D03006803F538731846FFF7D1FF7B6803F514A2
:102D130073184618F08AF87B6803F50273184600A7
:102D2300F081FB7B6803F5E073184600F059FB7BE9
:102D33006803F5BC73184600F053FB7B6803F598F2
:102D430073184600F04DFB7B68E833184600F00427
:102D5300FB7B689833184600F0DDFA7B686C331808
:102D630046FFF796FC7B6840331846FFF791FC7BE0
:102D7300681846FFF779FF7B6818460837BD468019
:102D8300BD2444020880B582B000AF78607868FF44
:102D9300F7AFFF4FF43C7178681FF018F97B6818A0
:102DA300460837BD4680BD80B483B000AF7860006D
:102DB300BF0C37BD465DF8047B704780B483B00019
:102DC300AF786000BF0C37BD465DF8047B704700E9
:102DD3000090B583B000AF0346FB710B46BB711384
:102DE300467B71FDF78DFE0346002B05D1094B0A87
:102DF3004A38210A481FF004FDFFF718FD03682C29
:102E0300331C687B79BA79F979A047034618460CD5
:102E130037BD4690BD903D0208D43D0208303E02C6
:102E23000890B593B002AF78607B68184600F03C19
:102E3300FBDD4A7B681A607B6803F1400407F108F5
:102E4300034FF6FF711846FFF723F807F10803193C
:102E5300462046FFF7FBFB7B6803F16C0407F10C8C
:102E6300034FF6FF711846FFF713F807F10C031928
:102E7300462046FFF7EBFB7B689833184600F02AA1
:102E8300FB7B68E833184600F045FB7B6803F59845
:102E930073184600F05FFB7B6803F5BC73184600AC
:102EA300F059FB7B6803F5E073184600F053FB7B96
:102EB3006803F50273184600F06DFB7B6803F51495
:102EC30073184617F0C1FF7B6803F53870B74B3BA7
:102ED3006100237B6107F110030CCB796800F08A52
:102EE300FB7B684033002200211846FFF77AF87B0A
:102EF3006803F1400407F1180300211846FEF7C8E0
:102F0300FF07F118031946204618F084FE7B686C0E
:102F130033E8225A211846FFF764F87B6803F16C03
:102F23000407F11C0302211846FEF7B2FF07F11C48
:102F3300031946204618F06EFE7B689833F222B4DC
:102F4300211846FFF74EF87B6803F1980407F12038
:102F5300030C211846FEF79CFF07F124030C2118EC
:102F630046FEF796FF07F1240207F12003194620D6
:102F73004618F08DFD7B6803F198027B6803F538F2
:102F83007319461046FFF7F4FC7B6803F1E80072FF
:102F93002300934FF4F0736FF016020021FEF7D66F
:102FA300FF7B6803F59870262300934FF496731EF6
:102FB300225A21FEF7CBFF7B6803F5987459223A16
:102FC300212120FFF705FF034619462046FFF7C3DB
:102FD300FD7B6803F5987300211846FFF71FFE7BFE
:102FE3006803F5987407F1280301211846FFF75F7A
:102FF300FD398D204618F0E6FC7B6803F1E8027B7F
:103003006803F598731946104616F068FE7B68034B
:10301300F5BC701C2300934FF4F0734F220021FE84
:10302300F795FF7B6803F5BC7459223A212120FFF1
:10303300F7CFFE034619462046FFF78DFD7B680355
:10304300F5BC7300211846FFF7E9FD7B6803F5BC67
:103053007300211846FFF78DFD7B6803F5BC7407E9
:10306300F12C0304211846FFF722FDB98D204618E1
:10307300F0A9FC7B6803F1E8027B6803F5BC7319D4
:1030830046104616F02BFE7B6803F5E0701C230008
:10309300934FF4F0733B220021FEF758FF7B680344
:1030A300F5E07459223A212120FFF792FE034619D5
:1030B300462046FFF750FD7B6803F5E073002118B7
:1030C30046FFF7ACFD7B6803F5E07300211846FF6C
:1030D300F750FD7B6803F5E07407F1300303211813
:1030E30046FFF7E5FC398E204618F06CFC7B68033D
:1030F300F1E8027B6803F5E0731946104616F0EE1B
:10310300FD7B6803F502730022B4211846FEF769BC
:10311300FF7B6803F5027407F134030D211846FEA3
:10312300F7B7FE07F138030D211846FEF7B1FE0786
:10313300F1380207F134031946204618F0A8FC7B46
:103143006803F502727B6803F5387319461046FF6E
:10315300F70FFC7B6803F5027300211846FFF78C19
:10316300FC7B6803F1E8027B6803F50273194610E0
:103173004616F0B4FD7B6803F51473A72240F2777B
:10318300111846FEF72EFF7B6803F5147300211810
:1031930046FFF72BFB7B6803F5147407F13C03062A
:1031A300211846FEF775FE09E024440208D53200D3
:1031B3000800007A44000020420000000007F13CB0
:1031C300031946204617F0CEFF7B6803F5147350AE
:1031D300211846FEF724FF7B6803F514735021186A
:1031E30046FEF72CFF7B6803F51473F1EE040AB176
:1031F300EE040A1846FFF738F87B6803F514731FCB
:10320300ED120A184617F0C9FF7B6803F514731F04
:10321300ED180A1846FFF70CF87B6803F514731FC3
:10322300ED1C1A5FED1C0A1FED1D0A1846FEF7D1AF
:10323300FF7B6803F514735FED210A1FED220A1863
:1032430046FEF7E1FF7B6803F514731FED251A5F54
:10325300ED260A1FED270A184618F05FF87B68036E
:10326300F5147300211846FEF794FF7A687B6840D3
:103273003319461046FFF74EFB7A687B686C3319A7
:10328300461046FFF747FB7A687B68983319461068
:1032930046FFF740FB7A687B68E83319461046FF20
:1032A300F739FB7A687B6803F5147319461046FFF8
:1032B300F731FB7B6818464437BD4690BD80B48325
:1032C300B000AF786000BF0C37BD465DF8047B707B
:1032D3004780B582B000AF786039607B6898333A35
:1032E300689A4206D17B681B682C331B6878689800
:1032F300470BE07B6803F502733A689A4205D17B7A
:10330300681B6830331B687868984700BF0837BD6F
:103313004680BD000080B582B000AF7860054A7B6F
:10332300681A607B681846FFF785FB7B68184608B8
:1033330037BD4680BD2846020880B582B000AF780D
:10334300607868FFF7E7FF502178681EF03FFE7B47
:103353006818460837BD4680BD80B582B000AF7897
:1033630060054A7B681A607B681846FEF7E5FE7BBA
:103373006818460837BD4680BD8845020880B58277
:10338300B000AF78607868FFF7E7FF482178681EE0
:10339300F01DFE7B6818460837BD4680BD80B582A8
:1033A300B000AF7860054A7B681A607B681846FFF7
:1033B300F7FDF87B6818460837BD4680BD2C6302CD
:1033C3000880B582B000AF78607868FFF7E7FF3414
:1033D3002178681EF0FBFD7B6818460837BD4680E0
:1033E300BD80B582B000AF7860054A7B681A607B08
:1033F300681846FFF7D3FF7B6818460837BD468039
:10340300BDFC44020880B582B000AF78607868FFE5
:10341300F7E7FF482178681EF0D9FD7B6818460856
:1034230037BD4680BD80B582B000AF7860054A7B6A
:10343300681A607B681846FFF7FDFA7B6818460830
:1034430037BD4680BD7844020880B582B000AF78AE
:10345300607868FFF7E7FF482178681EF0B7FD7BC7
:103463006818460837BD4680BD80B483B000AF7886
:1034730060044A7B681A607B6818460C37BD465D5A
:10348300F8047B7047E046020880B582B000AF784D
:10349300607868FFF7E9FF042178681EF097FD7BE9
:1034A3006818460837BD4680BD80B582B000AF7846
:1034B300607B6818461AF0C8FC054A7B681A607B73
:1034C300680022DA637B6818460837BD4680BD0072
:1034D300BFAC46020880B582B000AF78607B681845
:1034E30046FFF784FA0A4A7B681A607B68002283E6
:1034F300F833207B6800229A867B680022DA867B79
:10350300680022DA647B6818460837BD4680BD0030
:10351300BF2846020880B582B000AF78607B681888
:1035230046FEF7F4FD0A4A7B681A607B6800228333
:10353300F82C207B680022DA857B6800221A867BC0
:103543006800225A647B6818460837BD4680BD0070
:10355300BF8845020880B582B000AF78607B6818E9
:1035630046FFF7B6FA0A4A7B681A607B6800228333
:10357300F832207B6800229A867B680022DA867BF9
:103583006800225A647B6818460837BD4680BD0030
:10359300BFFC44020880B582B000AF78607B681836
:1035A30046FFF724FA0A4A7B681A607B6800228385
:1035B300F833207B6800229A867B680022DA867BB8
:1035C3006800225A647B6818460837BD4680BD00F0
:1035D300BF7844020880B483B000AF7860044A7BAC
:1035E300681A607B6818460C37BD465DF8047B702B
:1035F30047E046020880B584B000AFF860B960398F
:103603004681E80C00FB681846FFF7E4FF084AFB15
:10361300681A60FB68BA685A60FB6808333A4692D6
:10362300E8030083E80300FB6818461037BD4680B3
:10363300BD6044020880B582B000AF786039607B1A
:10364300685B687A68D268521098187B68DB6803F5
:10365300F00103002B02D17B689B680AE07B685B67
:10366300687A68D268521013441B687A68926813A8
:10367300441B683968984700BF0837BD4680BD8042
:10368300B483B000AF78607B685B68002B10D07B9D
:10369300689B68002B07D17B68DB6803F00103009C
:1036A3002B01D1012300E00023012B01D0012300D2
:1036B300E0002318460C37BD465DF8047B70478055
:1036C300B582B000AF78607B681846FEF7F1FC78EE
:1036D3006800F00DF900BF0837BD4680BD80B48394
:1036E300B000AF78600B467B807B687A88DA86000F
:1036F300BF0C37BD465DF8047B704780B483B000D0
:10370300AF78607B68DB8E18460C37BD465DF804E6
:103713007B704780B582B000AF78607B681B6878A8
:10372300331B6878689847034618460837BD4680B8
:10373300BD80B483B000AF78607B6893F8333018F2
:10374300460C37BD465DF8047B704780B582B000F8
:10375300AF78607B681846FEF7ABFC786800F058DA
:10376300F900BF0837BD4680BD80B483B000AF7891
:10377300600B467B807B687A88DA8600BF0C37BD96
:10378300465DF8047B704780B483B000AF78607BFC
:1037930068DB8E18460C37BD465DF8047B704780A6
:1037A300B582B000AF78607B681B6880331B687894
:1037B300689847034618460837BD4680BD80B483E2
:1037C300B000AF78607B6893F8323018460C37BD91
:1037D300465DF8047B704780B582B000AF78607BAC
:1037E300681846FEF765FC786800F0A3F900BF0887
:1037F30037BD4680BD80B483B000AF78600B467B95
:10380300807B687A881A8600BF0C37BD465DF80452
:103813007B704780B483B000AF78607B681B8E18E1
:10382300460C37BD465DF8047B704780B582B00017
:10383300AF78607B681B6894331B6878689847038C
:103843004618460837BD4680BD80B483B000AF78C4
:10385300607B6893F82C3018460C37BD465DF8043E
:103863007B704780B582B000AF78607B681846FEF6
:10387300F71FFC786800F007FA00BF0837BD4680E1
:10388300BD80B483B000AF78600B467B807B687AE1
:1038930088DA8600BF0C37BD465DF8047B7047802D
:1038A300B483B000AF78607B68DB8E18460C37BDFD
:1038B300465DF8047B704780B582B000AF78607BCB
:1038C300681B6878331B687868984703461846086E
:1038D30037BD4680BD80B483B000AF78607B68930A
:1038E300F8333018460C37BD465DF8047B704790BB
:1038F300B585B000AF78607B6893F83330002B0058
:10390300F083807B689A8E7B68DB8E9A4206D27B3B
:10391300689B8E01339AB27B689A8675E07B689BBD
:103923008E1A467B68DB8E19467B681B8F0B449A85
:103933004231D87B689B8E1A467B68DB8ED31AFB99
:10394300607B681C6CFB6898B27B68B3F93C309A67
:10395300B27B68B3F93A309BB2D31A9BB21AB27BEB
:10396300681B8F0021A04703467B8178687B68B37F
:10397300F93A30DAB27B89DBB21344DBB21946FF82
:10398300F77BF87B68184619F048FF7B689B8E012C
:10399300339AB27B689A867B689B8E1A467B68DB78
:1039A3008E19467B681B8F0B449A422DD97B680086
:1039B3002283F833207B6800221A8719F085FA02E4
:1039C300467B681946104619F0B5FA7B685B6C00B4
:1039D3002B0DD07B685A6C7B685B6C1B680C331BAC
:1039E30068104698470346002B01D0012300E000EE
:1039F30023002B09D07B685A6C7B685B6C1B6808BF
:103A0300331B6879681046984700BF1437BD46904A
:103A1300BD90B585B000AF78607B6893F832300015
:103A23002B00F083807B689A8E7B68DB8E9A42063C
:103A3300D27B689B8E01339AB27B689A8675E07B52
:103A4300689B8E1A467B68DB8E19467B681B8F0B3F
:103A5300449A4231D87B689B8E1A467B68DB8ED3AF
:103A63001AFB607B681C6CFB6898B27B68B3F93CFB
:103A7300309AB27B68B3F93A309BB2D31A9BB21A2D
:103A8300B27B681B8F0021A04703467B8178687B4C
:103A930068B3F93A30DAB27B89DBB21344DBB2198B
:103AA30046FFF767F87B68184619F0B7FE7B689BFB
:103AB3008E01339AB27B689A867B689B8E1A467B0B
:103AC30068DB8E19467B681B8F0B449A422DD97B8A
:103AD30068002283F832207B6800221A8719F0F4E9
:103AE300F902467B681946104619F024FA7B685B95
:103AF3006C002B0DD07B685A6C7B685B6C1B680C6D
:103B0300331B68104698470346002B01D00123005E
:103B1300E00023002B09D07B685A6C7B685B6C1B2D
:103B23006808331B6879681046984700BF1437BD8F
:103B33004690BD90B585B000AF78607B6893F82C54
:103B430030002B00F09C807B68DA8D7B681B8E9A9B
:103B53004206D27B68DB8D01339AB27B68DA858EAD
:103B6300E07B68DB8D1A467B681B8E19467B685B9E
:103B73008E0B449A424AD87B68DB8D1A467B681BBE
:103B83008ED31AFB607B68DC6BFB6898B27B68B3EF
:103B9300F938309AB27B68B3F934309BB2D31A9BAD
:103BA300B21AB27B685B8E0021A04703467B817B00
:103BB300681C6CFB6898B27B68B3F93A309AB27BA5
:103BC30068B3F936309BB2D31A9BB21AB27B685BE7
:103BD3008E0021A04703463B8178687B68B3F934A4
:103BE300309AB27B8913449BB219B27B68B3F9361E
:103BF300309AB23B8913449BB21BB21A46FEF7625A
:103C0300FA7B68DB8D01339AB27B68DA857B68DBEC
:103C13008D1A467B681B8E19467B685B8E0B449A14
:103C2300422DD97B68002283F82C207B680022DA9E
:103C33008519F04AF902467B681946104619F07A4D
:103C4300F97B685B6C002B0DD07B685A6C7B685BDF
:103C53006C1B680C331B68104698470346002B0106
:103C6300D0012300E00023002B09D07B685A6C7B32
:103C7300685B6C1B6808331B6879681046984700BB
:103C8300BF1437BD4690BD90B585B000AF78607B5B
:103C93006893F83330002B00F09C807B689A8E7B0E
:103CA30068DB8E9A4206D27B689B8E01339AB27B85
:103CB300689A868EE07B689B8E1A467B68DB8E193A
:103CC300467B681B8F0B449A424AD87B689B8E1AAB
:103CD300467B68DB8ED31AFB607B685C6CFB689861
:103CE300B27B68B3F93E309AB27B68B3F93A309B42
:103CF300B2D31A9BB21AB27B681B8F0021A0470371
:103D0300467B817B689C6CFB6898B27B68B3F94007
:103D1300309AB27B68B3F93C309BB2D31A9BB21A88
:103D2300B27B681B8F0021A04703463B8178687BE9
:103D330068B3F93A309AB27B8913449BB219B27BC8
:103D430068B3F93C309AB23B8913449BB21BB21A55
:103D530046FEF7B8F97B689B8E01339AB27B689A6B
:103D6300867B689B8E1A467B68DB8E19467B681BB5
:103D73008F0B449A422DD97B68002283F833207B32
:103D83006800229A8619F0A0F802467B681946104B
:103D93004619F0D0F87B68DB6C002B0DD07B68DA1A
:103DA3006C7B68DB6C1B680C331B681046984703FD
:103DB30046002B01D0012300E00023002B09D07B18
:103DC30068DA6C7B68DB6C1B6808331B68796810E6
:103DD30046984700BF1437BD4690BD000080B4002D
:103DE300AF024B1846BD465DF8047B7047F04602B0
:103DF3000880B400AF0E231846BD465DF8047B70FF
:103E03004780B485B000AFF860B9601346FB800704
:103E13004AFB681360064ABB681360064AFB8813B3
:103E23008000BF1437BD465DF8047B70473CAD008E
:103E33002444AD002440AD002490B585B000AF0309
:103E430046FB800023FB60FB88002B27D1FB881EE9
:103E53004A52F82330002B16D0FB881B4A52F82312
:103E630030BB60BB681B68BA681344184A1360BB55
:103E7300685B68BA681344164A1360BB689B68BAE8
:103E8300681344FB600AE0114B124A1A60124A108D
:103E93004B1A60FB88114A52F82330FB60FB680021
:103EA3002B0DD00F4AFB88138000F03EF804460028
:103EB300F033F803461A462146F868FFF7A1FF00DE
:103EC300BF1437BD4690BD00BFFC0F002404100093
:103ED3002408100024CC4B2D90A84B2D90E44D2D9D
:103EE300900010002480B483B000AF78600B467B51
:103EF30080074B1A68074B19687B889B000B441B90
:103F0300685B00134418460C37BD465DF8047B70AC
:103F130047041000240810002480B400AF092318BC
:103F230046BD465DF8047B704780B400AF024B1872
:103F330046BD465DF8047B70470C10002480B50035
:103F4300AFFDF7E8F90346044A1360FDF737FA03B8
:103F530046014A536000BF80BD0C10002480B500A9
:103F6300AFFFF7ECFF80BD80B483B000AF78607B18
:103F7300685B684FF47A7202FB03F31B0918460C63
:103F830037BD465DF8047B704780B582B000AF78DB
:103F930060054A7B681A607B681846FDF7ABFC7BBB
:103FA3006818460837BD4680BD1048020880B582B0
:103FB300B000AF78607868FFF7E7FF4FF4AC717833
:103FC300681EF004F87B6818460837BD4680BD00BC
:103FD3000080B584B000AFF860B9607A60FB687A9E
:103FE30068B9681846FDF700FD074AFB681A60FBCD
:103FF30068BA68C3F85021FB680022C3F85421FB58
:104003006818461037BD4680BD1048020890B58336
:10401300B000AF78607B68D3F85031184604F021C4
:10402300FD7B68184618F022FE7B68D3F854417B69
:1040330068D3F850311846FFF796FF03469C422C8D
:10404300BF01230023DBB2002B17D07B68D3F850CA
:1040530031184604F024FD034683F00103DBB2006C
:104063002B06D07B68D3F850310121184604F003A6
:10407300FD7B680022C3F8542106E07B68D3F85423
:10408300315A1C7B68C3F8542100BF0C37BD4690DE
:10409300BD80B582B000AF786039607B683968183D
:1040A3004618F09EFD786800F026F800BF0837BD7B
:1040B3004680BD80B582B000AF786039607B6839D7
:1040C30068184618F0B5FD786800F015F800BF08C9
:1040D30037BD4680BD80B582B000AF786039607B64
:1040E300683968184618F0AEFD786800F004F800E7
:1040F300BF0837BD4680BD80B582B000AF78607B16
:10410300680022C3F854217B68D3F850310021188A
:104113004604F0B1FC00BF0837BD4680BD80B483C0
:10412300B000AF78607B681B6C07EE903AB0EE6727
:104133000A0C37BD465DF8047B7047000080B582EA
:10414300B000AF7860054A7B681A607B681846FE4A
:10415300F7A1F87B6818460837BD4680BD4C480276
:104163000880B582B000AF78607868FFF7E7FF4F4B
:10417300F4A87178681DF02AFF7B6818460837BDDC
:104183004680BD000080B582B000AF78607B6818C0
:1041930046FEF7AEF8054A7B681A607B680022C3C7
:1041A300F84C217B6818460837BD4680BD4C480251
:1041B3000880B582B000AF78607B681846FEF7963A
:1041C300F900BF0837BD4680BD80B582B000AF7827
:1041D3006087ED000A7B68BC33D7ED007A77EEA7E2
:1041E3007AB0EE670A184616F0D8FF7B682C33972F
:1041F300ED000A184616F0D1FF00BF0837BD468010
:10420300BD80B582B000AF78600B46FB707B68BCA5
:1042130033FA7811461846FDF7CCFFFB78FF2B06DF
:10422300D17B682C3300211846FEF7DFFA05E07BCB
:10423300682C3301211846FEF7D8FAFB78002B06C9
:10424300D17B68BC3300211846FEF7CFFA05E07B2B
:1042530068BC3301211846FEF7C8FA00BF0837BD12
:104263004680BD90B585B000AF786039607B683A11
:1042730068C3F84C217B6803F12C043B689BB203B1
:10428300339AB207F1080311461846FDF701FE07FA
:10429300F108031946204616F065FF7B682C33C8E6
:1042A300211846FDF7BCFE7B682C33C8211846FD58
:1042B300F7C5FE7B6803F1BC043B689BB209339AE4
:1042C300B207F10C0311461846FDF7E2FD07F10CA6
:1042D300031946204616F046FF7B68BC33C82118F5
:1042E30046FDF79DFE7B68BC33C8211846FDF7A643
:1042F300FE00BF1437BD4690BD80B483B000AF78D5
:10430300600B46FB707B68FA7883F8282000BF0CAB
:1043130037BD465DF8047B704780B582B000AF7847
:1043230060054A7B681A607B681846FEF7D3F97B01
:104333006818460837BD4680BDE048020880B5824C
:10434300B000AF78607868FFF7E7FF582178681D01
:10435300F03DFE7B6818460837BD4680BD80B582B8
:10436300B000AF78607B681846FEF7DCF9034A7B40
:10437300681A607B6818460837BD4680BDE048026E
:104383000880B582B000AF78607B681846FEF714EA
:10439300FA00BF0837BD4680BD80B582B000AF7854
:1043A300600B46FB707B682C33FA7811461846FF86
:1043B300F7A3FF00BF0837BD4680BD80B483B000BC
:1043C300AF786000BF0C37BD465DF8047B70478053
:1043D300B483B000AF786000BF0C37BD465DF8040E
:1043E3007B7047000080B483B000AF7860044A7BE1
:1043F300681A607B6818460C37BD465DF8047B700D
:1044030047C449020880B582B000AF78607868FF7E
:10441300F7E9FF042178681DF0D9FD7B6818460889
:1044230037BD4680BD80B483B000AF7860044A7B5B
:10443300681A607B6818460C37BD465DF8047B70CC
:1044430047C449020880B483B000AF7860064A7B52
:10445300681A607B6800225A607B6818460C37BD77
:10446300465DF8047B704700BFAC49020880B48303
:10447300B000AF7860044A7B681A607B6818460C0A
:1044830037BD465DF8047B7047AC49020880B582AE
:10449300B000AF78607868FFF7E9FF082178681DFE
:1044A300F095FD7B6818460837BD4680BD80B48310
:1044B300B000AF78600B46FB7000BF0C37BD465DA4
:1044C300F8047B704780B483B000AF786000231892
:1044D300460C37BD465DF8047B7047000080B5820B
:1044E300B000AF7860094A7B681A60094A7B685A52
:1044F300607B6804331846FFF7B9FF7B681846FFF3
:10450300F771FF7B6818460837BD4680BD744902C2
:104513000894490208A0F10400E0E700BF80B582D7
:10452300B000AF78607868FFF7D9FF102178681D75
:10453300F04DFD7B6818460837BD4680BDA0F104E9
:1045430000ECE7000080B582B000AF786039607B93
:10455300681846FFF767FF7B6804331846FFF77256
:10456300FF064A7B681A60064A7B685A607B683A92
:1045730068DA607B6818460837BD4680BD74490217
:10458300089449020880B483B000AF786000BF0C80
:1045930037BD465DF8047B704780B483B000AF78C5
:1045A3006000BF0C37BD465DF8047B704780B58261
:1045B300B000AF78600B46FB707B689B68FA78119C
:1045C30046184604F07FFA00BF0837BD4680BD8019
:1045D300B582B000AF78600B46FB707B68DA687B0E
:1045E30068DB681B6834331B68F97810469847000A
:1045F300BF0837BD4680BDA0F10400FFF7E8BF80C8
:10460300B582B000AF78607B68DA687B68DB681BD3
:104613006838331B6810469847034618460837BD69
:104623004680BDA0F10400FFF7EABF000080B48319
:10463300B000AF7860044A7B681A607B6818460C48
:1046430037BD465DF8047B7047AC4B020880B483EA
:10465300B000AF7860044A7B681A607B6818460C28
:1046630037BD465DF8047B7047AC4B020880B582CA
:10467300B000AF78607868FFF7E9FF042178681D20
:10468300F0A5FC7B6818460837BD4680BD80B4831F
:10469300B000AF78607B68B3F900309AB27B68B33F
:1046A300F904309BB213449BB21BB218460C37BDBE
:1046B300465DF8047B704780B483B000AF78607BBD
:1046C30068B3F902309AB27B68B3F906309BB21330
:1046D300449BB21BB218460C37BD465DF8047B7091
:1046E3004780B582B000AF78600B467B8013463BB2
:1046F300807B68B3F90030B7F902209A421ADB785D
:1047030068FFF7C4FF03461A46B7F9023093421114
:10471300DA7B68B3F90230B7F900209A420ADB78F2
:1047230068FFF7C9FF03461A46B7F9003093420101
:10473300DA012300E0002318460837BD4680BD0098
:104743000080B584B000AFF860084611461A4603EE
:1047530046FB720B463B811346FB80FB681846FF02
:10476300F765FF0A4AFB681A60FB68FA7A1A71FB5D
:10477300683A89DA80FB68FA881A81FB683A8B5AAF
:1047830081FB6818461037BD4680BD00BF984B02B9
:104793000880B582B000AF7860054A7B681A607BF9
:1047A300681846FFF753FF7B6818460837BD4680F5
:1047B300BD984B020880B582B000AF78607868FF7F
:1047C300F7E7FF0C2178681DF001FC7B68184608A9
:1047D30037BD4680BD80B483B000AF78607B68B3DB
:1047E300F9063018460C37BD465DF8047B704780E8
:1047F300B483B000AF78607B68B3F9083018460C17
:1048030037BD465DF8047B704780B483B000AF7852
:10481300607B681B7918460C37BD465DF8047B70D6
:104823004780B483B000AF7860002318460C37BDCF
:10483300465DF8047B704780B483B000AF78607B3B
:1048430068B3F90A3018460C37BD465DF8047B702F
:104853004780B483B000AF78607B68B3F90C30183D
:10486300460C37BD465DF8047B704780B483B000C7
:10487300AF78607B68B3F9063018460C37BD465DE8
:10488300F8047B704780B483B000AF78607B681B0B
:104893007918460C37BD465DF8047B704780B483B6
:1048A300B000AF78607B68043318460C37BD465DB3
:1048B300F8047B704780B483B000AF78607B68B343
:1048C300F9043018460C37BD465DF8047B70478009
:1048D300B483B000AF78607B68B3F9063018460C38
:1048E30037BD465DF8047B704780B483B000AF7872
:1048F300607B68B3F9083018460C37BD465DF80491
:104903007B704780B483B000AF78600B46FB707B4D
:1049130068FA7883F8682000BF0C37BD465DF80459
:104923007B704780B582B000AF786039607B6804E4
:10493300333968184615F0A0F900BF0837BD468023
:10494300BD80B483B000AF78607B6893F8323018D1
:10495300460C37BD465DF8047B704780B483B000D6
:10496300AF78607B6893F82E3018460C37BD465DF0
:10497300F8047B704780B483B000AF87ED000B97DA
:10498300ED007BB0EEC77BB0EE470B0C37BD465D49
:10499300F8047B704780B483B000AF87ED010AD77A
:1049A300ED017AF0EEE77AB0EE670A0C37BD465DAB
:1049B300F8047B704780B582B000AF7860054A7B0E
:1049C300681A607B68184603F023FB7B6818460867
:1049D30037BD4680BD684B020880B582B000AF7812
:1049E300607868FFF7E7FF102178681DF0EFFA7B26
:1049F3006818460837BD4680BD90B583B000AF78D0
:104A0300601E4A7B681A607B6803F2E443002B1044
:104A1300D07B6803F2E44303F5B6647B6803F2E4F6
:104A2300439C4206D0A4F5B67423681B68204698BD
:104A330047F3E77B6803F54573002B0FD07B6803CF
:104A4300F5457303F5E8747B6803F545739C4205EC
:104A5300D0743C23681B6820469847F4E700BF7B6B
:104A63006803F541731846FFF7A5FF7B681846FEF8
:104A7300F73FF97B6818460C37BD4690BDDC490209
:104A83000880B582B000AF78607868FFF7B5FF4063
:104A9300F60C3178681DF09AFA7B6818460837BD22
:104AA3004680BD80B483B000AF78600B46FB707B5B
:104AB30068FA7883F8E92A7B680022C3F8F02A00B1
:104AC300BF0C37BD465DF8047B704780B483B000EC
:104AD300AF78607B6893F8E93A18460C37BD465DBA
:104AE300F8047B7047B0B584B000AF78607B68187A
:104AF30046FEF796F97B4A7B681A607B6803F541AB
:104B030070794BBB600023FB6007F108030CCB7982
:104B13006803F0F4FA7B6803F5457303241D460428
:104B2300E0284603F00BFB013C7435002CF8DA7BDC
:104B33006803F2E44303241D4605E0284603F020FE
:104B4300FB013C05F5B675002CF7DA7B68A522C39B
:104B5300F8942A7B682822C3F8982A7B6803F52AED
:104B6300634FF000021A607B6803F6A4235F4A1ABE
:104B7300607B6803F6A8234FF000021A607B68038A
:104B8300F6AC234FF07C521A607B68D3F8983A074F
:104B9300EE903AF8EEE77A37EEA77AF7EE006AC6B8
:104BA300EE877A7B6803F52B63C3ED007A7B68D3CA
:104BB300F8983A07EE903AB8EEE77A7B6803F6A8DE
:104BC30023D3ED007A77EE677A7B6803F6B423C3C9
:104BD300ED007A7B6803F6C8234FF000021A607B6E
:104BE3006803F6CC234FF000021A607B6803F52DAF
:104BF300634FF000021A607B6803F6D4234FF00082
:104C0300021A607B6803F6D8234FF000021A607B18
:104C1300680022C3F8DC2A7B68002283F8E82A7B39
:104C230068002283F8E92A7B68002283F8EA2A7B5A
:104C330068002283F8EB2A7B680022C3F8EC2A7B06
:104C4300680022C3F8F02A7B68002283F8F42A7BE9
:104C5300680322C3F8F82A7B680022C3F8FC2A7B86
:104C630068002283F8002B7B68002283F8012B7BEA
:104C730068012283F8022B7B680022C3F8042B7B94
:104C83006803F6B8234FF000021A607B6803F6BC92
:104C9300234FF000021A607B6803F52C634FF0008A
:104CA300021A607B6803F6C4234FF000021A607B8C
:104CB300680A22C3F8F0227B683222C3F8F4227B0D
:104CC300686FF01602C3F8F8227B686FF06302C3C3
:104CD300F8FC227B680022C3F800237B6818461087
:104CE30037BD46B0BDDC4902089D7F000800000CBB
:104CF3004390B52DED028B8BB000AF7860FBF700CE
:104D0300FF034601211846FFF7FCFD7B681846FEAA
:104D1300F7D5FA00237B6207E17B6803F52A6393E7
:104D2300ED007A7B6A07EE903AF8EEE77ADFED82E0
:104D33006A67EEA67A77EE277A7A687B6A03F2AE21
:104D4300239B001344C3ED007A7B6803F6A42393EB
:104D5300ED008A7A687B6A03F2AE239B001344D387
:104D6300ED007AB0EE670A1DF0D9FAB0EE407A7B17
:104D730068D3F8943A07EE903AF8EEE77A67EE27AD
:104D83007A78EE277AB7EEE77A87ED047B7B6803C0
:104D9300F6A82393ED008A7A687B6A03F2AE239B1D
:104DA300001344D3ED007AB0EE670A1DF0F3F9B0B7
:104DB300EE407A7B68D3F8983A07EE903AF8EEE73C
:104DC3007A67EE277A78EE277AB7EEE77A87ED02ED
:104DD3007B7B6A4FF4B67202FB03F303F59C637AA1
:104DE300681344181D7A687B6A4FF4B67101FB039C
:104DF300F3134403F2E4431B6834331B6897ED0455
:104E03007BFDEEC77B17EE902A11B297ED027BFD77
:104E1300EEC77B17EE902A12B298477B6A4FF4B61F
:104E23007202FB03F303F59C637A6813441C1D7B36
:104E33006A4FF4B67202FB03F303F59C637A6813BB
:104E43004404331846FFF743FD034607EE903AB890
:104E5300EEE77A7B6803F6B423D3ED007A37EE27C7
:104E63007A7B6803F52B63D3ED007A67EE277AB07C
:104E7300EE670A2046FFF7A8F97B6A4FF4B6720281
:104E8300FB03F303F59C637A68134404331846FF6A
:104E9300F71EFD03461A46DB00D31AFF333B623B82
:104EA3006AFF2B02DDFF233B6204E03B6A002B0118
:104EB300DA00233B627B6A4FF4B67202FB03F3030F
:104EC300F59C637A68134404333A6AD2B2114618E4
:104ED30046FFF796F97B6A4FF4B67202FB03F303BE
:104EE300F59C637A681344181D7A6A144B83FB029A
:104EF30031D317C91A0B465B000B44D11AFFF7B124
:104F0300F97B6A4FF4B67202FB03F303F59C637AF1
:104F13006813441A1D7B6803F54173194610460351
:104F2300F051F97B6A01337B627B6A032B7FF7F4D1
:104F3300AE0023FB61BAE000BFDB0FC93F565555F6
:104F43005500002A437B6803F6A423D3ED007AB30C
:104F5300EE047A37EE878A7A68FB6903F2AE239B05
:104F6300001344D3ED007AB0EE670A1DF0D7F9B011
:104F7300EE407A7B68D3F8943A07EE903AF8EEE77E
:104F83007A67EE277A78EE277AB7EEE77A87ED0429
:104F93007B7B6803F6A823D3ED007A1FED177A37DE
:104FA300EE878A7A68FB6903F2AE239B001344D32E
:104FB300ED007AB0EE670A1DF0EDF8B0EE407A7BB3
:104FC30068D3F8983A07EE903AF8EEE77A67EE2757
:104FD3007A78EE277AB7EEE77A87ED027BFB69747E
:104FE3002202FB03F303F544737A681344181D7A12
:104FF30068FB69742101FB03F3134403F545731B39
:105003006834331B6897ED047BFDEEC77B17EE9086
:105013002A11B297ED027BFDEEC77B17EE902A12A1
:10502300B29847FB69742202FB03F303F544737AD6
:1050330068134404331846FFF74AFC0346C3F1D20E
:10504300039B00BB61BB69FE2B01DDFF23BB61FB3F
:1050530069742202FB03F303F544737A6813441A59
:105063001DBB69DBB2DB43DBB219461046FFF79485
:10507300F97868FB69742202FB03F303F544737A3E
:1050830068134404331946FDF745FC7868FB694F00
:10509300F4B67202FB03F303F59C637A68134404CA
:1050A300331946FDF737FCFB690133FB61FB6903E9
:1050B3002B7FF748AF7B68012283F8022B00BF2CBC
:1050C30037BD46BDEC028B90BD80B582B000AF7892
:1050D300607B681846FDF7FEFB00BF0837BD4680BE
:1050E300BDB0B58AB000AF786039607B6893F801D2
:1050F3003B002B7ED07B6803F514731846FFF7CE75
:10510300FB04463868FFF766FB03461D463868FF15
:10511300F76EFB03461A4629462046FFF7E1FA03DA
:1051230046002B1CD03868FFF76FFB0346002B02A9
:10513300D0012B05D012E07B68012283F8082B0EE7
:10514300E07B6893F8083B002B08D07B68DA6B7B25
:105153006893F8023B19461046FFF728FA00BF0090
:10516300237B6242E07B6A4FF4B67202FB03F303D4
:10517300F59C637A68134404331846FFF78FFB04E6
:10518300463868FFF727FB03461D463868FFF72FAD
:10519300FB03461A4629462046FFF7A2FA034600B8
:1051A3002B17D07B6A4FF4B67202FB03F303F59C13
:1051B300637A68134404331846FFF789FB03466494
:1051C3002B07D13868FFF720FB0346012B01D101E0
:1051D3002300E00023002B05D07B681B6830331BC2
:1051E30068786898477B6A01337B627B6A032BB9D3
:1051F300DD51E23868FFF708FB0346002B0CBF01C3
:10520300230023DBB2002B00F021817B6800228383
:10521300F8E82A7B68002283F8F42A3868FFF7DA73
:10522300FA034607EE903AB8EEE77A7B6803F6A4F2
:1052330023D3ED007A77EE677AC7ED067A3868FFF5
:10524300F7D6FA0346962B08DD3868FFF7D0FA0342
:105253004607EE903AF8EEE77A01E0DFEDCA7AC747
:10526300ED057A7B6803F6A823D3ED007A97ED0565
:105273007A77EE677AC7ED047AD7ED047A27EEA73B
:105283007AD7ED067A67EEA77A77EE277AB0EE67DC
:105293000A1CF02AFF87ED030A3868FFF79BFA031D
:1052A3004607EE903AB8EEE77A7B6803F6A423D379
:1052B300ED007AB4EEE77AF1EE10FAACBF01230009
:1052C30023DBB2002B15D097ED047AD7ED037AC711
:1052D300EE276AB0EE660A1CF0BBFEF0EE407A9F42
:1052E300EDAA7A67EE877A7B6803F69C23C3ED0009
:1052F3007A33E03868FFF76EFA034607EE903AB860
:10530300EEE77A7B6803F6A423D3ED007AB4EEE7E5
:105313007AF1EE10FA4CBF01230023DBB2002B1C01
:10532300D097ED047AD7ED037AC7EE276AB0EE661D
:105333000A1CF08EFEF0EE407A9FED947A77EE67CA
:105343007A9FED927A77EE877A9FED8F7A67EE8771
:105353007A7B6803F69C23C3ED007A7B6803F52A06
:1053630063D3ED007ADFED8A0AB0EE670A1CF09C86
:10537300FEF0EE407A7B6803F52A63C3ED007A0002
:10538300233B625FE07B6803F52A6393ED007A3B7E
:105393006A07EE903AF8EEE77ADFED7C6A67EEA6ED
:1053A3007A77EE277A7A683B6A03F2AE239B00137F
:1053B30044C3ED007A7A683B6A03F2AE239B001381
:1053C30044D3ED007A9FED727AF4EEC77AF1EE10D2
:1053D300FA14DD7A683B6A03F2AE239B001344D3CD
:1053E300ED007A9FED6B7A77EEC77A7A683B6A03B2
:1053F300F2AE239B001344C3ED007A20E07A683BAE
:105403006A03F2AE239B001344D3ED007AF5EEC09A
:105413007AF1EE10FA13D57A683B6A03F2AE239B56
:10542300001344D3ED007A9FED5A7A77EE877A7AA8
:10543300683B6A03F2AE239B001344C3ED007A3B3F
:105443006A01333B623B6A032B9CDD24E17B689357
:10545300F8E83A83F00103DBB2002B17D07B6893A3
:10546300F8F43A002B0ED17B6803F52D6393ED001E
:105473007A7B6803F6CC23D3ED007AB4EEE77AF1B6
:10548300EE10FA03D5786801F0A5FC04E17B68937C
:10549300F8F43A83F00103DBB2002B00F0FC807BCD
:1054A3006893F8E83A83F00103DBB2002B00F0F3D2
:1054B300800023FB61EBE0FB694FF4B67202FB0350
:1054C300F303F59C637A68134404331846FFF7E645
:1054D300F904463868FFF77EF903461D463868FF2E
:1054E300F786F903461A4629462046FFF7F9F803DB
:1054F30046002B00F0C9807A68FB6903F2AE239B58
:10550300001344D3ED007A9FED237AF4EEC77AF1CA
:10551300EE10FA0EDC7A68FB6903F2AE239B0013EC
:1055230044D3ED007AB5EE007AF4EEC77AF1EE10CB
:10553300FA40D57B6803F598707B68D3F8F0329A0C
:10554300B2154B002102F04DFE7B6803F52A631A66
:10555300687B6803F6D8231A607B6803F6D4230FAD
:105563004A1A607B6803F52D634FF000021A607BD3
:105573006803F6CC230A4A1A607B68012283F8E8A1
:105583002A82E000BF00001643CDCCCC3FDB0FC91D
:105593003FDB0FC940DB0FC1407DE10108DB0FC9D1
:1055A3003F00002042DB0FA93FDB0FE93FDB0F3950
:1055B30040DB0F59407A68FB6903F2AE239B00136B
:1055C30044D3ED007A1FED097AF4EEC77AF1EE10B9
:1055D300FA15DD7A68FB6903F2AE239B001344D30B
:1055E300ED007A1FED0F7AF4EEC77AF1EE10FA06AA
:1055F300D57B681B682C331B687868984744E07A2E
:1056030068FB6903F2AE239B001344D3ED007A1FBA
:10561300ED197AF4EEC77AF1EE10FA35DD7A68FB0C
:105623006903F2AE239B001344D3ED007A1FED20F0
:105633007AF4EEC77AF1EE10FA26D57B6803F59873
:10564300707B68D3F8F0329AB2174B002102F0C98D
:10565300FD7B6803F52A631A687B6803F6D8231A6F
:10566300607B6803F6D423114A1A607B6803F52D27
:10567300634FF000021A607B6803F6CC230C4A1ACE
:10568300607B68012283F8E82AFB690133FB61FB35
:1056930069032B7FF710AF7B683968184618F09EB3
:1056A300FA00BF2837BD46B0BD7DE10108DB0FC955
:1056B300BF00002042B0B588B000AF786039607B8E
:1056C3006893F8013B002B20D07B6803F514731813
:1056D30046FFF7E4F804463868FFF7ADF803461DC4
:1056E300463868FFF7B5F803461A4629462046FEB2
:1056F300F7F7FF034683F00103DBB2002B00F0D37F
:10570300807B68002283F8082BCDE07B6893F8F454
:105713003A83F00103DBB2002B0AD07B6803F598D0
:10572300707B68D3F8F0329AB2614B002102F059D2
:10573300FD7B68012283F8F42A4FF00003FB6138F4
:1057430068FFF779F8034607EE903AB8EEE77A7BFD
:105753006803F6A423D3ED007A77EE677AC7ED06E4
:105763007A3868FFF775F80346962B08DD3868FF2B
:10577300F76FF8034607EE903AF8EEE77A01E0DFB9
:10578300ED4D7AC7ED057A7B6803F6A823D3ED00C8
:105793007A97ED057A77EE677AC7ED047AD7ED0449
:1057A3007A27EEA77AD7ED067A67EEA77A77EE2700
:1057B3007AB0EE670A1CF098FC87ED030A3868FF9D
:1057C300F73AF8034607EE903AB8EEE77A7B6803B8
:1057D300F6A423D3ED007AB4EEE77AF1EE10FAAC37
:1057E300BF01230023DBB2002B12D097ED047AD73D
:1057F300ED037AC7EE276AB0EE660A1CF029FCF0C7
:10580300EE407A9FED2D7A67EE877AC7ED077A30FF
:10581300E03868FFF710F8034607EE903AB8EEE772
:105823007A7B6803F6A423D3ED007AB4EEE77AF12A
:10583300EE10FA4CBF01230023DBB2002B19D097E3
:10584300ED047AD7ED037AC7EE276AB0EE660A1C39
:10585300F0FFFBF0EE407A9FED197A77EE677A9FBF
:10586300ED177A77EE877A9FED147A67EE877AC71A
:10587300ED077A7B6803F52A6393ED007A7B68036F
:10588300F69C23D3ED006AD7ED077A76EEE77A77B5
:10589300EE677AB0EE670A786801F0B8FB7B6803BD
:1058A300F69C23FA691A6000BF2037BD46B0BD00DD
:1058B300BF7DE1010800001643CDCCCC3FDB0FC90F
:1058C3003F80B52DED028B84B000AF786039607BEB
:1058D3006893F8013B002B40F03D813868FEF7D216
:1058E300FF0346002B0CBF01230023DBB2002B0078
:1058F300F031817B6893F8F43A83F00103DBB20063
:105903002B0AD07B6803F598707B68D3F8F0329A42
:10591300B2934B002102F065FC3868FEF7A6FF0343
:105923004607EE903AB8EEE77BB0EE470BFFF7225F
:10593300F8B0EE407BF7EEC77BC7ED027AD7ED02F6
:105943007A77EEA77AB0EE670A1CF0A8FDF0EE4076
:105953007A7B6803F6CC23C3ED007A7B6803F52DCD
:10596300634FF000021A607B6803F52A631A687BB1
:105973006803F6D8231A603868FEF777FF034600FA
:105983002B02DDBFEE007A01E0B7EE007AD7ED021D
:105993007ADFED746A67EEA67A67EE277A7B68038F
:1059A300F6D423C3ED007A7B6803F6D42393ED008A
:1059B3008A7B6803F6D423D3ED007ADFED6B0AB05C
:1059C300EE670A1CF071FBF0EE407A78EE677A7BA3
:1059D3006803F6D423C3ED007A0023FB6096E07AD4
:1059E30068FB6803F2AE239B001344D3ED007A9F58
:1059F300ED5F7AF4EEC77AF1EE10FA14DD7A68FB04
:105A03006803F2AE239B001344D3ED007A9FED5756
:105A13007A77EEC77A7A68FB6803F2AE239B0013AA
:105A230044C3ED007A13E07A68FB6803F2AE239B6C
:105A3300001344D3ED007A9FED4D7A77EE877A7A9F
:105A430068FB6803F2AE239B001344C3ED007A7A2C
:105A530068FB6803F2AE239B001344D3ED007A9FE7
:105A6300ED437AF4EEC77AF1EE10FAB8DC7A68FB0C
:105A73006803F2AE239B001344D3ED007AF5EEC026
:105A83007AF1EE10FAABD47A68FB6803F2AE239B8B
:105A9300001344D3ED007AB0EE670AFEF77BFFF004
:105AA300EE407A9FED317A77EEC77AB0EE670AFE61
:105AB300F771FFB0EE408A7B68D3F8DC3A7A68036B
:105AC300F2AE239B001344D3ED007AB0EE670AFED7
:105AD300F761FFF0EE407A9FED247A77EEC77AB054
